:020000040800F2
:1000000000000320312A0008692800086B28000836
:100010006D2800086F280008712800080000000003
:10002000000000000000000000000000732800082D
:1000300075280008000000007728000879280008CB
:10004000812A0008812A0008812A0008812A0008E4
:10005000812A0008812A0008812A0008812A0008D4
:10006000812A0008812A0008812A0008812A0008C4
:10007000812A0008812A0008812A0008812A0008B4
:10008000812A0008812A0008812A0008812A0008A4
:10009000812A0008812A0008812A0008812A000894
:1000A000812A0008812A0008812A0008812A000884
:1000B000812A0008812A0008812A0008812A000874
:1000C000812A0008812A0008812A0008812A000864
:1000D000812A0008812A0008812A0008812A000854
:1000E000812A0008812A0008812A0008812A000844
:1000F000812A0008812A0008812A0008812A000834
:10010000812A0008812A0008812A0008812A000823
:10011000812A0008812A0008812A0008812A000813
:10012000812A0008812A0008812A0008812A000803
:0C013000812A0008812A0008812A0008AA
:1001400010B5054C237833B9044B13B10448AFF311
:1001500000800123237010BD740000200000000007
:10016000CC38000808B5034B1BB103490348AFF373
:10017000008008BD0000000078000020CC38000896
:1001800001F0FF01102A2BDB10F0070F08D010F848
:10019000013B013A8B422DD010F0070F42B3F6D14C
:1001A000F0B441EA012141EA014122F007047FF065
:1001B00000070023F0E80256083C85EA010586EABC
:1001C000010685FA47F5A3FA87F586FA47F6A5FAF8
:1001D00087F68EB9EED1F0BC01F0FF0102F0070204
:1001E00032B110F8013B013A83EA010313B1F8D1AF
:1001F0000020704701387047002D06BF3546033890
:10020000073815F0010F07D1013015F4807F02BFC8
:10021000013015F4C03F0130F0BC0138704700BF19
:1002200053B94AB9002908BF00281CBF4FF0FF315D
:100230004FF0FF3000F07AB9ADF1080C6DE904CE53
:1002400000F006F8DDF804E0DDE9022304B07047B1
:100250002DE9F0478C460D460446089E002B51D1EF
:100260008A4217466DD9B2FA82FEBEF1000F0BD05A
:10027000CEF1200C01FA0EF520FA0CFC02FA0EF772
:100280004CEA050C00FA0EF44FEA174A250CBCFBA9
:10029000FAF81FFA87F90AFB18CC45EA0C4508FB67
:1002A00009F3AB420AD9ED1908F1FF3280F023813E
:1002B000AB4240F22081A8F102083D44ED1AA4B2FD
:1002C000B5FBFAF00AFB105544EA054400FB09F9B6
:1002D000A14509D9E41900F1FF3380F00A81A14555
:1002E00040F2078102383C44A4EB090440EA08408C
:1002F0000021002E61D024FA0EF4002334607360D4
:10030000BDE8F0878B4207D9002E54D0002186E843
:1003100021000846BDE8F087B3FA83F1002940F0D8
:100320008E80AB4202D3824200F2FA80841A65EBDF
:1003300003050120AC46002E3FD086E81010BDE832
:10034000F08712B90127B7FBF2F7B7FA87FEBEF1C3
:10035000000F34D1EB1B3A0C1FFA87FC0121B3FBD1
:10036000F2F8250C02FB183345EA03450CFB08F3B1
:10037000AB4207D9ED1908F1FF3002D2AB4200F2CF
:10038000D1808046ED1AA3B2B5FBF2F002FB105506
:1003900043EA05440CFB00FCA44507D9E41900F12D
:1003A000FF3302D2A44500F2B8801846A4EB0C0437
:1003B00040EA08409DE731463046BDE8F087CEF17F
:1003C000200405FA0EF307FA0EF720FA04F83A0CA7
:1003D00025FA04F448EA0308B4FBF2F14FEA1845A1
:1003E00002FB11441FFA87FC45EA044501FB0CF3AC
:1003F000AB4200FA0EF409D9ED1901F1FF3080F09B
:100400008A80AB4240F2878002393D44EB1A1FFAE2
:1004100088F5B3FBF2F002FB103345EA034500FB1D
:100420000CF3AB4207D9ED1900F1FF386FD2AB42A4
:100430006DD902383D44EB1A40EA01418FE7C1F122
:10044000200722FA07F88B4005FA01F448EA030373
:1004500020FA07FE4FEA134CFD404EEA040EB5FBAE
:10046000FCF94FEA1E440CFB19551FFA83F844EAC5
:10047000054509FB08F4AC4202FA01F200FA01FA60
:1004800008D9ED1809F1FF3043D2AC4241D9A9F1A6
:1004900002091D442D1B1FFA8EFEB5FBFCF00CFB60
:1004A00010554EEA054400FB08F8A04507D9E418AA
:1004B00000F1FF3529D2A04527D902381C4440EA73
:1004C0000940A4EB0804A0FB02894C45C6464D46F2
:1004D00015D312D056B1BAEB0E0364EB050404FA3F
:1004E00007F7CB401F43CC40376074600021BDE864
:1004F000F0871846F8E69046E0E6C245EAD2B8EB47
:10050000020E69EB03050138E4E72846D7E74046C9
:1005100091E78146BEE7014678E702383C4445E76B
:10052000084608E7A8F102083D442BE7704700BFE2
:1005300038B5104C236805460BB9012038BD00F0D2
:1005400099FE22684FF47A73B3FBF2F3B0FBF3F039
:1005500000F088F804460028EFD10F2DEDD80246B0
:1005600029464FF0FF3000F049F8034B20461D604C
:1005700038BD00BF0400002008000020094A1368AD
:1005800043F4807310B50320136000F025F80020B9
:10059000FFF7CEFF044618B902F0AAF8204610BDB6
:1005A0000124FBE700400058034A04491368096826
:1005B0000B441360704700BF9C0000200400002023
:1005C000014B1868704700BF9C000020014B186861
:1005D000704700BF08000020074AD36823F4E06397
:1005E0001B041B0C43F0BF63000243F4003300F410
:1005F000E0600343D360704700ED00E0174B30B577
:10060000DC68C4F30224C4F10703251D042B28BFB2
:100610000423062D4FF0010505FA03F303F1FF3320
:100620008CBF033C00241940A14005FA04F4013CAE
:100630002240002842EA01024FEA0212AFBF00F155
:10064000604000F00F00064BD2B2A5BF00F561403C
:10065000D2B21A5480F8002330BD00BF00ED00E094
:1006600014ED00E00138B0F1807F0AD2064B074A52
:100670005860F02182F823100020072298601A6049
:1006800070470120704700BF10E000E000ED00E07F
:100690002DE9F04F554AD1F8008000234FF00F09A3
:1006A00038FA03F401D1BDE8F08F012404FA03FA0B
:1006B00018EA0A0500F08F804C6824F0100BBBF19B
:1006C000020F11D1DF0800EB870703F0070E3E6A27
:1006D0004FEA8E0E09FA0EFC26EA0C0C0E6906FA99
:1006E0000EF646EA0C063E624FEA430C0327066804
:1006F00007FA0CF7FF4304F0030E3E400EFA0CFE1F
:100700000BF1FF3B4EEA0606BBF1010F066011D864
:10071000866806EA070BCE6806FA0CFE4EEA0B0660
:100720008660466826EA0A0AC4F300169E4046EA36
:100730000A064660C66837408E6806FA0CF63743EC
:10074000E600C76047D523F0030707F1804707F5A8
:10075000803703F0030EBE684FEA8E0E09FA0EFCD6
:10076000B0F1904F26EA0C0C37D0214EB04236D073
:1007700006F58066B04234D006F58066B04232D0CD
:1007800006F58066B04214BF0726042606FA0EF668
:1007900046EA0C06BE60D2F88060EF4314F4803F56
:1007A0000CBF3E402E43C2F88060D2F8846014F43F
:1007B000003F0CBF3E402E43C2F88460166814F41C
:1007C000801F0CBF3E402E4316605668A40254BFE3
:1007D0003E402E435660013362E70026D6E70126ED
:1007E000D4E70226D2E70326D0E700BF000800586E
:1007F000000400480AB1816170478162704770B59A
:10080000044686B0002857D090F8293203F0FF0242
:100810001BB980F8282201F0F9FF032384F829325C
:10082000206801F0E7FD0022606801261546D3B27A
:10083000984202F1010220D800221146D3B2984218
:1008400002F1010228D804F110060FCE6D460FC543
:1008500033682B60231D0ECB206801F0D5FD0025E9
:10086000012384F8245084F82932E369012B02D152
:10087000204600F024F828461FE004EB431181F8DD
:100880002830CB8602335B0181F8296081F82B5038
:100890008D63CD63E550CAE704EB431585F8283135
:1008A0000A335B0185F8291185F82B11C5F8381139
:1008B000C5F83C11E150C1E7012006B070BD0268E7
:1008C00003460121C0F86812002083F86002B2F8E4
:1008D00054309BB20B43A2F85430B2F854309BB260
:1008E00043F00203A2F8543070470000024A136834
:1008F00043F480731360704700040058024B18687B
:1009000000F4C060704700BF000400584FF0B043CF
:100910001868C0F3404070474FF0B0431868C0F308
:10092000802070474FF0B043D3F89400C0F34000EC
:1009300070474FF0B0431868C0F3400070474FF065
:10094000B042136823F0F0031843106070474FF073
:10095000B043186800F0F000B02828BFB0207047FE
:100960004FF0B042536823F47F4343EA00205060C5
:1009700070474FF0B0431868C0F340607047000004
:10098000B028324B324A98BF0009F0B58CBFDD6AFF
:1009900053F820502F4C4FF0B0438DB0D3F80831AE
:1009A00003F00F0304AE52F82330B5FBF3F52A4BE6
:1009B000B5FBF3F5FFF7A2FF074694E80F0086E8C2
:1009C0000F0004F1100207CA01AB1C3483E80700D2
:1009D00094E80F00B7F5007F0CAC04E90F001FD1BD
:1009E000002356F82320954215D80CAA02EB830366
:1009F00053F8104C194D2B6823F0070323432B6049
:100A0000FFF7DEFD06462B6803F007039C4216D174
:100A100000200DB0F0BD0133042BE2D10024E9E742
:100A2000019B9D4207D9029B9D4206D9039B9D4293
:100A3000F4D80223D9E70023D7E70123D5E7FFF74E
:100A4000BFFD801B0228DED90320E2E77C390008C5
:100A50001C390008E438000840420F0000400058EC
:100A6000F8B5044608B90120F8BD03689D0629D5EC
:100A70004FF0B0429368D26813F00C0305D00C2BF2
:100A800045D102F00303012B41D1FFF752FF10B112
:100A9000E369002BE7D0626AFFF759FF8242606A80
:100AA0002AD9FFF76DFF0028DDD1606AFFF747FF05
:100AB000206AFFF755FF01F065FF0020FFF738FDC2
:100AC0000028D0D12368D8074ED42368990700F1B5
:100AD0009880236813F0180F40F0D98023685A07D4
:100AE00000F1658123685A0600F1B781E16A0029A7
:100AF00040F0DF810020F8BDFFF721FF206AFFF7FB
:100B00002FFF606AFFF73CFF0028D4D0ABE7E26913
:100B10004FF0B043BAB11A6842F001021A60FFF711
:100B20004FFD0546FFF705FF30B1606AFFF707FF8D
:100B3000206AFFF715FFC5E7FFF742FD401B0228BB
:100B4000F0D90320F8BD1A6822F001021A60FFF7FD
:100B500037FD0546FFF7EDFE0028B3D0FFF730FD67
:100B6000401B0228F6D9ECE74FF0B0429368D268F8
:100B700003F00C03082B05D00C2B0BD102F0030360
:100B8000032B07D1FFF7C2FE00289ED06368002B1D
:100B90009BD168E76268B2F5803F4FF0B04310D157
:100BA0001A6842F480321A60FFF70AFD0546FFF723
:100BB000ADFE002889D1FFF703FD401B6428F6D95C
:100BC000BFE7B2F5A02F04D11A6842F480221A6060
:100BD000E6E7196821F480311960196821F4802151
:100BE0001960002AE0D1FFF7EBFC0546FFF78EFE07
:100BF00000283FF46AAFFFF7E3FC401B6428F5D9F7
:100C00009FE74FF0B0429368D26803F00C03042BC7
:100C100005D00C2B14D102F00303022B10D1FFF7E7
:100C20007BFE18B1E368002B3FF41DAF4FF0B042DC
:100C30002169536823F0FE4343EA0163536048E7A8
:100C4000E2684FF0B04382B11A6842F480721A60D1
:100C5000FFF7B6FC0546FFF75FFE0028E6D1FFF779
:100C6000AFFC401B0228F6D96BE71A6822F48072A9
:100C70001A60FFF7A5FC0546FFF74EFE00283FF47B
:100C800028AFFFF79DFC401B0228F5D959E76269A0
:100C90004FF0B045002A6BD0DB0643D5FFF742FE8C
:100CA00010B34FF0B045D5F8943043F00403C5F8C5
:100CB0009430FFF785FC0646D5F894301F0740F1C5
:100CC0007881D5F89430A26923F4706343EA022353
:100CD000C5F89430D5F8943023F00103C5F894306A
:100CE000FFF76EFC054618E0D5F8943043F0010399
:100CF000C5F89430FFF764FC0546FFF713FE0028A3
:100D0000CFD1FFF75DFC401B0228F6D919E7FFF7AA
:100D100057FC401B02283FF614AFFFF703FE0028E4
:100D2000F5D1DBE6D5F8943043F00103C5F89430F3
:100D3000FFF746FC0646FFF7F5FD98B14FF0B043CC
:100D40001D46D3F8942022F00402C3F89420D5F86D
:100D5000943018077FF5C2AEFFF732FC801B0328E2
:100D6000F5D9EEE6FFF72CFC801B0228E3D9E8E674
:100D7000D5F8943023F00403C5F89430FFF720FC35
:100D80000646D5F89430190740F11A81FFF718FC90
:100D9000801B0328F5D9D4E6FFF712FC401B02287C
:100DA0003FF6CFAEFFF7BEFD0028F5D196E6894DA0
:100DB0002B68DB051CD5A368012B4FF0B04525D16E
:100DC000D5F8903043F00103C5F89030FFF7F8FBF9
:100DD0004FF0B047064641F28835D7F89030980773
:100DE0003FF580AEFFF7ECFB801BA842F5D9A8E6E3
:100DF000FFF77CFDFFF7E4FB06462B68DF05DAD43E
:100E0000FFF7DEFB801B0228F7D99AE6052B06D1F7
:100E1000D5F8903043F00403C5F89030D0E7D5F80A
:100E2000902022F00102C5F89020D5F8902022F001
:100E30000402C5F89020002BC8D1FFF7C1FB41F296
:100E400088360746D5F8903099077FF54BAEFFF707
:100E5000B7FBC01BB042F5D973E6A36A4FF0B045AB
:100E60009BB1D5F8983043F00103C5F89830FFF7EF
:100E7000A7FB0646D5F898309A073FF537AEFFF73F
:100E80009FFB801B0228F5D95BE6D5F8983023F04C
:100E90000103C5F89830FFF793FB0646D5F8983064
:100EA0009B077FF523AEFFF78BFB801B0228F5D94C
:100EB00047E64FF0B0439A6802F00C020C2A52D079
:100EC0001A68022922F080721A6034D1FFF778FB89
:100ED0000546FFF74EFD40BB4FF0B042616B236B00
:100EE000D0680B433C4901400B43E16B0B43216C41
:100EF0000B43616C0B43A16B43EA0123D36013687E
:100F000043F080731360D36843F08053D360FFF7DE
:100F100057FB0446FFF72DFD00287FF4EBADFFF7EC
:100F20004FFB001B0228F5D90BE6FFF749FB401BDE
:100F30000228CED905E6DA6822F00302DA60DA6820
:100F400022F0885222F48032DA60FFF739FB04463F
:100F5000FFF70FFD00283FF4CDADFFF731FB001B7D
:100F60000228F5D9EDE5D868236B00F003029A4218
:100F70007FF479AD626B00F0700393427FF473AD40
:100F8000A26BC0F3062393427FF46DADE26B00F4D5
:100F9000781393427FF467AD226C00F06063934254
:100FA0007FF461AD636C00F06040C01A18BF01208F
:100FB000F8BDFFF705FB801B03287FF67DAEC0E57B
:100FC000D5F8943023F00103C5F89430FFF7F8FA10
:100FD0000546E7E6000400588C80C1112DE9F04178
:100FE0000D46044610B90120BDE8F081794E336802
:100FF00003F007038B4272D3236899070ED54FF095
:10100000B046A268B36823F0F0031343B360FFF760
:10101000D7FA0746B368DB0340F1B88023689A0625
:1010200011D54FF0B0466269D6F8083123F0F003CD
:101030001343C6F80831FFF7C3FA0746D6F808315C
:10104000990340F1AA802368580612D54FF0B046A4
:10105000A269D6F8083123F00F0343EA1213C6F849
:101060000831FFF7ADFA0746D6F80831DB0340F147
:101070009B8023685A070ED54FF0B046E268B368EC
:1010800023F4E0631343B360FFF79AFA0746B368AB
:10109000990340F19080236818070FD54FF0B046B0
:1010A0002269B36823F4605343EAC203B360FFF7D5
:1010B00087FA0746B3685B0340F184802368DA0748
:1010C00023D4444C236803F007039D424BD301F023
:1010D00059FCFFF77BFABDE8F041FFF729BA336806
:1010E00023F007030B433360FFF76AFA07463368C0
:1010F00003F007039D423FF47FAFFFF761FAC01B87
:101100000228F4D90320BDE8F0816368022B1ED1C8
:10111000FFF7FCFB00283FF466AF4FF0B046626873
:10112000B36823F003031343B360FFF749FA41F2B6
:1011300088380746B368626803F00C03B3EB820F8C
:10114000BFD0FFF73DFAC01B4045F3D9DAE7032BC8
:1011500002D1FFF70EFCDDE713B9FFF7EAFBD9E791
:10116000FFF7DAFBD6E7236823F007032B4323605E
:10117000FFF726FA0646236803F007039D42A6D030
:10118000FFF71EFA801B0228F5D9BBE7FFF718FA14
:10119000C01B02287FF63EAFB4E7FFF711FAC01B71
:1011A00002287FF64BAFADE7FFF70AFAC01B022813
:1011B0007FF65AAFA6E7FFF703FAC01B02287FF6B7
:1011C00066AF9FE7FFF7FCF9C01B02287FF672AFFE
:1011D00098E700BF004000584FF0B04208B5936850
:1011E00013F00C0307D1FFF7B2FB1F4BC0F3031042
:1011F00053F8200008BD042B33D0082B07D1136807
:101200001A4813F4801F1A4B08BF184608BDD3684C
:1012100003F00303022B22D0032B18D113681448C8
:1012200013F4801F114B08BF03464FF0B042D06843
:10123000D168D268C0F306205843C1F302130133CA
:10124000B0FBF3F0530F0133B0FBF3F008BDFFF731
:101250007EFB054BC0F3031053F82030E5E7034B4A
:10126000E3E7024808BD00BF7C3900080024F40011
:101270000048E80108B5FFF7AFFF4FF0B043044A5C
:101280009B68C3F3031352F82330B0FBF3F008BD9F
:101290001C39000808B5FFF7EDFF4FF0B043054AD1
:1012A0009B68C3F3022352F8233003F01F03D84096
:1012B00008BD00BF5C39000808B5FFF7DBFF4FF041
:1012C000B043054A9B68C3F3C22352F8233003F0AE
:1012D0001F03D84008BD00BF5C3900084FF0B04381
:1012E000D3F89000C0F3400070474FF0B0410209BE
:1012F000D1F8883002F47F22000123EA020300F4CF
:101300007F201843C1F8880070474FF0B04213683F
:1013100043F08063136070474FF0B042136823F0CE
:101320008063136070474FF0B0431868C0F3C0602B
:101330007047F8B5056815F04005044643D0036BC7
:10134000B3F5800F15D002D8D3B101253BE0B3F53A
:10135000000F02D0B3F5400FF7D14FF0B042216B30
:10136000D2F8883023F440030B43C2F888300025BC
:1013700029E04FF0B042D36843F48033D360ECE708
:10138000FFF7CAFFFFF71CF90546FFF7CCFFA0B92E
:101390004FF0B0426168136923F4FE4343EA01232E
:1013A00013611369A16823F478130B431361FFF7EA
:1013B000ACFFFFF705F90546BAE0FFF701F9401B5E
:1013C0000228E2D9032523681A0515D54FF0B04647
:1013D000236CD6F8907007F44077BB420CD0FFF72F
:1013E00085FAD6F89030002F40F0AD80226C23F4BF
:1013F00040731343C6F890302368DF0709D54FF0D8
:10140000B041A069D1F8882022F003020243C1F85C
:1014100088209E0709D54FF0B041E069D1F88820B7
:1014200022F440620243C1F88820D8060CD5A66A8F
:101430004FF0B040310CD0F88820090422EA0102B4
:1014400042EA0642C0F8882099060CD5E66A4FF0B9
:10145000B040310CD0F88820090422EA010242EAA7
:101460000642C0F888205A0702D5206AFFF73DFFE0
:1014700023681B0702D5606AFFF737FF2368DF0583
:1014800010D54FF0B042616BD2F8883023F0406342
:101490000B43B1F1006FC2F888307DD1D36843F0BF
:1014A0008073D3602268960509D54FF0B041A06BD8
:1014B000D1F8883023F040430343C1F88830500509
:1014C00011D54FF0B042E16BD2F8883023F0405391
:1014D0000B43B1F1005FC2F8883040F09480D368CC
:1014E00043F48033D3602268D10409D54FF0B04172
:1014F000606CD1F8943023F440430343C1F8943036
:1015000093040DD54FF0B042E16C536A23F03003E1
:101510000B435362536AA16C23F003030B435362E2
:101520002846F8BDFFF74CF8401B02283FF64AAFAB
:10153000FFF7F9FE0128F5D14FF0B0426169136958
:101540000B43136109E7D6F8902042F48032C6F8C5
:101550009020D6F8902022F48032C6F89020226C99
:1015600023F440731343C6F89030D6F89030DB076D
:101570007FF542AFFFF724F841F28836074604E0D2
:10158000FFF71EF8C01BB04204D8FFF7A7FE0128E2
:10159000F6D131E703252FE7B1F1806F82D1FFF754
:1015A000BBFEFFF70DF80646FFF7BDFEA0B94FF0F2
:1015B000B0426168136923F4FE4343EA01231361D7
:1015C0001369E16823F060630B431361FFF79DFE2D
:1015D000FEF7F6FF06460BE0FEF7F2FF801B02283F
:1015E000E2D903255EE7FEF7EBFF801B0228F8D85F
:1015F000FFF799FE0128F6D14FF0B04261691369F7
:101600000B4313614EE7B1F1805F7FF46CAFFFF7DE
:1016100083FEFEF7D5FF0646FFF785FEA0B94FF023
:10162000B0426168136923F4FE4343EA0123136166
:101630001369216923F060430B431361FFF765FED3
:10164000FEF7BEFF06460BE0FEF7BAFF801B02283E
:10165000E2D9032547E7FEF7B3FF801B0228F8D83D
:10166000FFF761FE0128F6D14FF0B04261691369BE
:101670000B43136137E74FF0B042136843F00403A4
:1016800013607047026838B5D36823F0A003D360B5
:101690000446FEF795FF05462368DB689B0601D5E7
:1016A000002038BDFEF78CFF401BB0F57A7FF3D9E0
:1016B000032038BD38B50368DA685206044601D500
:1016C000002038BD4FF0FF32DA60FEF779FF0546A3
:1016D0002368DB685B06F3D4FEF772FF401BB0F5AE
:1016E0007A7FF5D9032038BD38B50446D8B190F8D3
:1016F000213003F0FF021BB980F8202001F04AF8E6
:10170000022384F821302368CA225A6253225A6283
:101710002046FFF7CFFF2368054630B1FF225A620B
:10172000042384F82130012538E09A68206922F4E6
:10173000E00222F040029A60626899680243A06960
:1017400002430A439A60E2681A611A69A1686069F3
:1017500042EA01421A61DA6822F08002DA60DA6C49
:1017600022F00302DA64E269D96C02430A43DA64C4
:101770009B689B060CD42046FFF784FF40B123688A
:10178000FF225A62042384F8213084F82050CAE7EB
:101790002368FF225A62012384F82130284638BD8D
:1017A00070B5044600284AD00023836290F85D306B
:1017B00003F0FF021BB980F85C2000F0FBFF02235E
:1017C000216884F85D300B68E26823F04003B2F5CD
:1017D000E06F0B604FF000032ED91846B2F5706F22
:1017E00018BFA362236B2BB9B2F5E06F8CBF022345
:1017F00001232363A6686368A569334326693343DD
:1018000066693343E6693343266A3343A66A334342
:1018100005F4007633430B60636A1A43636B2D0C47
:101820001A4305F004052A430243012300204A60BD
:10183000206684F85D3070BD4FF48050D0E7012001
:1018400070BD0000000000000268C16983682DE9D6
:10185000F048044600691568034360690343606EFD
:101860000B430343AC482840034313605368E068CC
:1018700023F4405303435360A84BA0699A421CBF12
:10188000236A1843936823F06E4323F430630343C1
:101890009360D06A636A20F00F001843D062A048BA
:1018A00082421AD14FF0B0429E48D2F8882002F00E
:1018B0000302B1F5004F825C02F1FF3200F020829A
:1018C000072A00F2E783DFE812F027034903E50364
:1018D0008C03E503E503E503A5039048824240F04D
:1018E000D5834FF0B042D2F8882002F44062B2F5BE
:1018F000806F00F094800CD8CAB301220123A4F8B1
:101900006A30A4F868300023E36623671046BDE818
:10191000F088B2F5006F64D0B2F5406FEDD1002BC6
:1019200000F0E180012B00F0E180022B00F0E1806B
:10193000032B00F0E180042B00F0E180052B00F088
:10194000E180062B00F0E180072B00F0E180082BFE
:1019500000F00081092B00F000810A2B00F00081CB
:101960000B2B14BF4FF400408020082393E0FFF7B7
:1019700091FC636AFBB1012B1FD0022B1FD0032BFC
:101980001FD0042B1FD0052B1FD0062B1FD0072BD9
:101990001FD0082B1FD0092B1FD00A2B1FD00B2BB9
:1019A00014BF01234FF48073B0FBF3F00023002831
:1019B00071D10246A2E70123F6E70223F4E70423EC
:1019C000F2E70623F0E70823EEE70A23ECE70C230F
:1019D000EAE71023E8E72023E6E74023E4E7802353
:1019E000E2E7002B52D0012B52D0022B52D0032B16
:1019F00069D0042B69D0052B69D0062B69D0072B41
:101A000069D0082B69D0092B69D00A2B69D04648C8
:101A10004FF224420B2B08BF104602233BE0FFF796
:101A2000DBFB636AE3B1012B1CD0022B1CD0032B20
:101A30001CD0042B1CD0052B1CD0062B1CD0072B34
:101A40001CD0082B1CD0092B1CD00A2B1CD00B2B14
:101A500014BF01234FF48073B0FBF3F00423A6E717
:101A60000123F9E70223F7E70423F5E70623F3E769
:101A70000823F1E70A23EFE70C23EDE71023EBE758
:101A80002023E9E74023E7E78023E5E72648C4E78A
:101A90002648C2E72648626802EB420181423FF6CF
:101AA0002CAFB0EB023F3FF628AF082B00F22581A8
:101AB000DFE813F05900230195002301D100230131
:101AC00023012301EA001B48A7E71B48A5E71B48A1
:101AD000A3E71B48A1E71B489FE71B489DE71B485E
:101AE0009BE71B4899E74FF400403EE74FF48040E6
:101AF0003BE74FF4005038E741F2555035E74FF4DB
:101B0000805032E740F6CC402FE740F6AA202CE781
:101B10004FF4006029E700BFF369FFCF0080004069
:101B200000380140103900080024F40000127A0047
:101B300000093D00AAB0280080841E00006A180039
:101B40005558140040420F0020A1070090D0030018
:101B500048E801004FF480609DE74FF4007004E70F
:101B60004FF4807001E7FFF795FB636A002B00F0EC
:101B70008980012B72D0022B72D0032B72D0042BE0
:101B800072D0052B72D0062B72D0072B72D0082B87
:101B900072D0092B72D00A2B72D00B2B72D14FF45A
:101BA000807200230021FEF73BFB65680F0247EAC5
:101BB00010670602680816EB000B47F1000C2A4676
:101BC000002358466146FEF72BFB00229A4BA0F5F6
:101BD000407199423FF691AE2368D8608EE6636A01
:101BE000002B36D0012B16D0022B16D0032B16D08B
:101BF000042B1ED0052B1ED0062B1ED0072B20D069
:101C0000082B20D0092B20D00A2B20D00B2B20D141
:101C10008A48002106E08A48FBE78A48F9E782A162
:101C2000D1E90001550840194FF0000341F10001CE
:101C3000C9E78548EDE78548EBE77DA1D1E90001DB
:101C4000F0E78348E5E78348E3E78348E1E7834833
:101C5000DFE78348DDE7FFF7BFFA86E70222A0E768
:101C600004229EE706229CE708229AE70A2298E7C8
:101C70000C2296E7102294E7202292E7402290E778
:101C800080228EE701228CE7636A9BB3012B16D07A
:101C9000022B17D0032B18D0042B18D0052B19D0EA
:101CA000062B19D0072B19D0082B1AD0092B1BD0C3
:101CB0000A2B1CD00B2B1DD14FF40040A9E74FF489
:101CC0008000A6E74FF40010A3E76648A1E74FF4B1
:101CD00080109EE764489CE764489AE74FF4002030
:101CE00097E74FF4802094E74FF4003091E74FF4EA
:101CF00080308EE74FF400008BE70122002065E77B
:101D0000072A00F20681DFE812F008003F00040114
:101D10007600040104010401C700FFF7CDFA616AEF
:101D200000296BD001296BD002296BD003296BD01D
:101D300004296BD005296BD006296BD007296BD0FD
:101D400008296BD009296BD00A296BD00B2914BF45
:101D500001224FF480726168B0FBF2F24B0803EB92
:101D60004203B3FBF1F39BB20022A3F110004FF644
:101D7000EF7188423FF6C1AD23F00F012068C3F335
:101D800042030B43C360B9E5FBB1012B1FD0022B0B
:101D90001FD0032B1FD0042B1FD0052B1FD0062BC9
:101DA0001FD0072B1FD0082B1FD0092B1FD00A2BA9
:101DB0001FD02F49294A0B2B14BF13460B466268CC
:101DC00003EB5203B3FBF2F3CDE7244BF7E71B4BD6
:101DD000F5E7284BF3E7284BF1E7284BEFE7284BD3
:101DE000EDE7284BEBE7284BE9E7284BE7E7284BE3
:101DF000E5E7284BE3E7FFF7EFF990E70122AAE7D1
:101E00000222A8E70422A6E70622A4E70822A2E706
:101E10000A22A0E70C229EE710229CE720229AE7E4
:101E2000402298E7802296E700AAB0280000000030
:101E30000055581400000000FFFC0F000024F400BF
:101E40000000127A0000093D0080841E00006A181C
:101E50000040420F0020A1070090D0030048E80195
:101E6000000024F40055150000CC0C0000AA0A0064
:101E700048E8010000127A005461510000093D0059
:101E800000D43000AAB0280080841E0040420F0019
:101E900020A1070090D00300D3B1012B1BD0022B4F
:101EA0001CD0032B1DD0042B1ED0052B1FD0062BBE
:101EB00020D0072B21D0082B22D0092B23D00A2B8E
:101EC00024D00B2B14BF4FF480334FF4807376E78C
:101ED0004FF4803373E74FF4004370E74FF48043CF
:101EE0006DE742F6AA236AE74FF4005367E741F62D
:101EF000981364E741F2545361E74FF480535EE76F
:101F00004FF400635BE74FF4806358E74FF40073CE
:101F100055E70122002328E7FFF7CEF9636A002B7B
:101F200062D0012B62D0022B62D0032B62D0042B33
:101F300062D0052B62D0062B62D0072B62D0082B13
:101F400062D0092B62D00A2B62D00B2B14BF012365
:101F50004FF480736268B0FBF3F31CE05BB3012BBA
:101F60002BD0022B2BD0032B2BD0042B2BD0052BCB
:101F70002BD0062B2BD0072B2BD0082B2BD0092BAB
:101F80002BD00A2B2BD0454A4FF224410B2B14BFE8
:101F900013460B46626803EB5203B3FBF2F30022D5
:101FA0009BB2A3F110004FF6EF7188423FF6A5AC4B
:101FB0002168CB60A2E4394BECE7394BEAE7394BB7
:101FC000E8E7394BE6E7394BE4E7394BE2E7394BD1
:101FD000E0E7394BDEE7394BDCE7394BDAE7394BE1
:101FE000D8E7FFF7F9F899E70123B3E70223B1E750
:101FF0000423AFE70623ADE70823ABE70A23A9E7ED
:102000000C23A7E71023A5E72023A3E74023A1E79C
:1020100080239FE7CBB1012B1AD0022B1BD0032BBF
:102020001CD0042B1DD0052B1ED0062B1FD0072B38
:1020300020D0082B21D0092B22D00A2B23D00B2B08
:1020400014BF4FF400438023A4E74FF40043A1E7FB
:102050004FF480439EE74FF400539BE741F2555302
:1020600098E74FF4805395E740F6CC4392E740F66B
:10207000AA238FE74FF400638CE74FF4806389E76E
:102080004FF4007386E74FF4807383E7B1F5004F98
:102090003FF43FAF0122002383E700BF0024F40098
:1020A00000127A0000093D00AAB0280080841E00BA
:1020B000006A18005558140040420F0020A1070084
:1020C00090D0030048E80100836ADA0710B506D50E
:1020D0000168C46A4A6822F4003222434A609C07BD
:1020E00006D50168046B4A6822F4803222434A60B4
:1020F000590706D50168446B4A6822F480222243BE
:102100004A601A0706D50168846B4A6822F40042C7
:1021100022434A60DC0606D50168C46B8A6822F453
:10212000805222438A60990606D50168046C8A6849
:1021300022F4005222438A605A060FD50168446C8B
:102140004A6822F480122243B4F5801F4A6005D108
:102150004A68846C22F4C00222434A601B0606D5FA
:102160000268C16C536823F400230B43536010BD15
:102170002DE9F041069D04460F4616469846216813
:10218000CA6937EA02030CBF01220022B24202D020
:102190000020BDE8F0816B1CF2D0FEF711FAA0EB35
:1021A0000800854201D3002DE9D123681A6822F482
:1021B000D0721A609A6822F001029A602023C4F853
:1021C0008030C4F88430002384F87C300320BDE8DC
:1021D000F08173B504460026C0F88860FEF7F0F978
:1021E00023681B681A07054617D423681B685B071A
:1021F0000AD56FF07E43009300222B464FF48001F6
:102200002046FFF7B5FFA0B920230020C4F8803096
:1022100084F87C00C4F884300CE06FF07E430093B7
:10222000324603464FF400112046FFF7A1FF002875
:10223000DBD0032002B070BD10B5044650B3D0F817
:1022400080301BB980F87C3000F054FA22682423D7
:10225000C4F88030136823F0010313602046FFF7B1
:10226000F3FA012816D0A36A13B12046FFF72CFF1A
:1022700023685A6822F490425A609A6822F02A022F
:102280009A601A6842F0010220461A60BDE81040C8
:10229000FFF79FBF012010BD1FB503228DF803205B
:1022A00007228DF8042000228DF806208DF80720E3
:1022B00008228DF808208DF80C20426E012304219D
:1022C00002248DF800308DF801308DF802308DF841
:1022D00005308DF809108DF80A408DF80B108DF837
:1022E0000D308DF80E308DF80F302AB9A0F86A3015
:1022F000A0F8683004B010BD02689368916804AA21
:1023000002EB5171C3F3426311F8102C11F8081C51
:10231000D20092FBF1F2A0F86A2004AA134413F849
:10232000102C13F8083CD20092FBF3F3E0E790F88E
:102330007C30012B14D002682423C0F8803011684F
:10234000136823F00103136021F00051002343665A
:1023500011602022C0F8802080F87C301846704739
:102360000220704738B590F87C30012B04461BD012
:10237000012380F87C302423C0F8803003681D6876
:102380001A6822F001021A609A6822F06042114332
:102390009960FFF781FF03681D602023C0F880303B
:1023A000002084F87C0038BD022038BD38B590F894
:1023B0007C30012B04461BD0012380F87C30242381
:1023C000C0F8803003681D681A6822F001021A60A4
:1023D0009A6822F0606211439960FFF75DFF03681D
:1023E0001D602023C0F88030002084F87C0038BDB8
:1023F000022038BDB0F8403023F47E535B045B0C00
:10240000A0F840300020704784B010B503AC84E8D9
:102410000E0000220123A0F84030A0F84020A0F8D0
:102420004420A0F85020B0F84030BDE810409BB2E6
:1024300043F43F4343F08003A0F8403004B010461B
:1024400070474FF0B04382B0DA6C0243DA64DB6C61
:1024500018400190019B02B07047000070B5AEB00B
:102460004822002108A800F031FB1C22002101A80D
:1024700000F02CFB002150221AA800F027FB4FF09F
:10248000B0430125DA6822F07002DA60DA6822F0DF
:10249000030242F00102DA60D3F8902022F0180221
:1024A000C3F89020274A136823F4C06343F40073F1
:1024B000136013680A9503F4C0630093009B0F95A3
:1024C0002F2308934FF4803309934FF480730B93B9
:1024D00040230C936023119308A8052300240D9337
:1024E0000226FEF7BDFA29466F2301A80193029642
:1024F00003940494059406940794FEF76FFD42F646
:1025000003131A9318231B934FF400331C934FF0BB
:1025100000731D934FF000531E934FF080731F9371
:102520004FF0806327934FF400732A931AA8102367
:102530002D93209421942C96FEF7FBFEFFF79BF839
:102540002EB070BD000400587FB5FEF717F8FFF7F6
:1025500085FF1422002101A800F0B8FA0420FFF73B
:1025600070FF0120FFF76DFF0220FFF76AFF0820D0
:10257000FFF767FF0022232149484A4D0024FEF758
:1025800039F9102301A94848019302940394FEF7F6
:102590007FF82323019301A9012341480293039467
:1025A0000494FEF775F8032301A9404801930294AF
:1025B0000394FEF76DF83E4AAC604FF416530C26B8
:1025C000284685E80C00EC602C61AC612C626C62E2
:1025D000AC626C666E61FFF72FFE21462846FFF75E
:1025E000C1FE21462846FFF7E1FE2846314DFFF7A0
:1025F0009EFE3149AC604FF4E133284685E80A007D
:10260000EC602C61AC61EC612C626C62AC626E615E
:10261000FFF712FE21462846FFF7A4FE2146284672
:10262000FFF7C4FE2846FFF782FE2448244B0461CE
:1026300080E818007F238360FF23C36044618461C6
:10264000C461FFF751F81F481F4B84604FF4827537
:1026500080E828004FF4E063C3604FF400738361A7
:102660000825072304614461C461046244628462F2
:10267000C36204634563FFF793F81448144B446145
:1026800080E8280002238461C461046283600361DE
:10269000FEF7B5F80F4C204600F020FAFBE700BF2C
:1026A00000040048A000002000080048000C00487A
:1026B000008000402C01002000380140B8010020BB
:1026C00000280040DC0100200030014040020020D2
:1026D00000680040143900084FF0B04382B0DA6C53
:1026E0000243DA64DB6C18400190019B02B0704732
:1026F0007047000010B5044688B01422002103A8DA
:1027000000F0E4F923681F4A93421CD14FF0B04314
:102710000420DA6D42F00102DA65DB6D03F001039B
:102720000193019BFFF7D8FF032303930223049334
:1027300000230593069314480823079303A9FDF784
:10274000A7FF08B010BD114A9342FAD14FF0B04331
:1027500002201A6E42F480421A661B6E03F4804314
:102760000293029BFFF7B8FFC02303930223049355
:1027700001230593002306930723079303A9044825
:10278000DDE700BF0080004000080048003801403D
:10279000000400480268064B9A4201BF4FF0B04265
:1027A000D2F8903043F40043C2F89030704700BF35
:1027B0000028004010B5044686B01422002101A86C
:1027C00000F084F92268104B9A421BD14FF0B043BD
:1027D00001201A6E42F480521A661B6E03F4805375
:1027E0000093009BFFF778FFE023019302230293FD
:1027F00000230393049301A905234FF09040059310
:10280000FDF746FF06B010BD0030014010B504468C
:1028100086B01422002101A800F058F92268114B5B
:102820009A421CD10120FFF757FF4FF4C053019388
:102830000223029300230393049301A90A234FF078
:1028400090400593FDF724FF4FF0B0439A6D42F09E
:1028500080629A659B6D03F080630093009B06B0D5
:1028600010BD00BF006800407047FEE7FEE7FEE7CE
:10287000FEE7704770477047FDF796BE10B500231E
:102880004FF06044934201DB104610BDD4F8800E37
:10289000C00703D5D4F8000EC00702D40133F1E716
:1028A00000BF20680028FBD0C85C2070F6E700005D
:1028B000044B1968024609B90349196018680244B3
:1028C0001A60704790000020B8040020024B582284
:1028D0001A604FF0FF307047B4040020024B5822BA
:1028E0001A604FF0FF307047B4040020024B5822AA
:1028F0001A600020704700BFB4040020024B582229
:102900001A604FF0FF307047B4040020024B582289
:102910001A604FF0FF307047B4040020174B0021BD
:102920009960D3F8882042F47002C3F888204FF0F1
:10293000B0436FF4827C1A6842F001021A604FF4CF
:10294000E0229A601868A2F1A262624402401A6012
:10295000D3F8942022F00502C3F89420D3F89820ED
:1029600022F00102C3F89820054ADA601A611A6859
:1029700022F480221A609961704700BF00ED00E0E8
:10298000001004224FF0B042244913689068C3F34A
:10299000031300F00C0010B551F823401146204AF3
:1029A0000C2839D8DFE800F038383838073838389C
:1029B0001638383818001B4B13604FF0B0431A48D4
:1029C00099681368C1F3031150F82110B3FBF1F3B8
:1029D000136010BD154BEFE7C868CB6800F003002B
:1029E000C3F30213022803F101030ED10D49B1FB19
:1029F000F3F34FF0B041C868C968C0F30620490F2F
:102A000043430131B3FBF1F3D6E7032801D1074972
:102A1000EDE7B4FBF3F3ECE71460CEE77C39000894
:102A20000C0000200024F4001C3900080048E801D4
:102A30000D4885460D480E490E4A002302E0D45841
:102A4000C4500433C4188C42F9D30B4A0B4C0023F6
:102A500001E013600432A242FBD3FFF75FFF00F0F6
:102A600011F8FFF771FDFEE70000032004000020CD
:102A700074000020643A000874000020B8040020AC
:102A8000FEE7000070B50D4E0D4CA41BA4100025F0
:102A9000A54209D10B4E0C4C00F018FFA41BA4104A
:102AA0000025A54205D170BD56F82530984701355F
:102AB000EEE756F8253098470135F2E75C3A000812
:102AC0005C3A00085C3A0008603A00080244034699
:102AD000934200D1704703F8011BF9E70FB40A4B8A
:102AE00013B51C6824B1A36913B9204600F04EF851
:102AF00005AB049AA1680193204600F0A7F902B043
:102B0000BDE8104004B0704710000020014900F0FB
:102B1000A9B800BF21370008002310B504460360A0
:102B20004360836081814366C28103614361836145
:102B3000194608225C30FFF7C9FF054B6362054B5D
:102B4000A362054BE362054B2462236310BD00BF03
:102B5000C5330008E73300081F3400084334000879
:102B600070B54A1E682555430E4605F1740100F004
:102B7000E5F8044640B1002180E842000C30A06036
:102B800005F16802FFF7A2FF204670BD836910B50A
:102B9000044633BB8364C3640365124B124A1B684B
:102BA0008262984204BF0123836100F01FF86060D5
:102BB000204600F01BF8A060204600F017F8002225
:102BC000E06004216068FFF7A7FF01220921A068E7
:102BD000FFF7A2FF02221221E068FFF79DFF012309
:102BE000A36110BD1C3A00080D2B0008F8B51C4B62
:102BF0001E68B369074613B93046FFF7C7FF48366A
:102C0000B4687368013B03D5336833B13668F7E7BE
:102C1000B4F90C506DB16834F4E704213846FFF77D
:102C20009FFF30600028F1D10C233B600446204612
:102C3000F8BD4FF6FF73E3810123A381656625602C
:102C4000A560656025616561A5610822294604F1DA
:102C50005C00FFF73BFF6563A563A564E564E6E7F9
:102C60001C3A00082DE9F8438046894600F14804E3
:102C7000002614B93046BDE8F883A5686768013FAF
:102C800001D52468F5E7AB89012B07D9B5F90E30DA
:102C9000013303D029464046C84706436835EEE76E
:102CA00038B50546002945D051F8043C0C1F002BCF
:102CB000B8BFE41800F0D4FD1F4A1368104633B9BA
:102CC000636014602846BDE8384000F0CABDA342E6
:102CD0000CD921686218934204BF1A685B6863606C
:102CE00004BF521822600460ECE713465A680AB128
:102CF000A242FAD919685818A0420BD120680144A1
:102D0000581882421960DDD1106852685A60014437
:102D10001960D7E702D90C232B60D3E7206821186C
:102D20008A4204BF11685268626004BF09182160BA
:102D30005C60C7E738BD00BF9400002070B5CD1CB3
:102D400025F0030508350C2D38BF0C25002D06464F
:102D500001DBA94203D90C233360002070BD00F0D1
:102D60007FFD234A1468214691B9224C23681BB980
:102D7000304600F017FB20602946304600F012FB79
:102D8000431C26D10C233360304600F06AFDE4E793
:102D90000B685B1B1AD40B2B0FD90B60CD50CC18D2
:102DA000304600F05EFD04F10B00231D20F007000B
:102DB000C31A1BD05A42E25070BD8C420DBF6368EB
:102DC0004B686360136018BF0C46E9E70C4649681E
:102DD000CAE7C41C24F00304A04205D0211A3046DF
:102DE00000F0E0FA0130CDD02560D9E770BD00BF1A
:102DF00094000020980000209368013B002B10B441
:102E0000936009DA9469A34202DBCBB20A2B03D1A7
:102E10005DF8044B00F01ABB1368581C1060197061
:102E2000C8B25DF8044B7047F8B506460F46144625
:102E3000D518AC4201D1002007E03A4614F8011B36
:102E40003046FFF7D9FF431CF3D1F8BD2DE9F04F11
:102E50009DB00C4617460393064618B183690BB91B
:102E6000FFF794FE7C4B9C4257D17468A3891807E6
:102E70005DD52369002B5AD00023099320238DF8B8
:102E8000293030238DF82A304FF0010BB8464546E3
:102E900015F8013B002B55D1B8EB070A0BD0534670
:102EA0003A4621463046FFF7BFFF013000F0C480AC
:102EB000099B5344099398F80030002B00F0BC8024
:102EC00000234FF0FF3204930793059206938DF889
:102ED00053301A93052229786048FDF751F905F11E
:102EE0000108049B002831D1D90644BF20228DF867
:102EF00053201A0744BF2B228DF853202A782A2A00
:102F00002CD0079A00210A20A846013598F80030F5
:102F1000303B092B6DD971B326E0514B9C4201D156
:102F2000B468A3E74F4B9C4208BFF4689EE7214674
:102F3000304600F0EFFA00289ED04FF0FF301DB071
:102F4000BDE8F08F252BA7D0A846A0E7434A801AFA
:102F50000BFA00F0184304904546BBE7039A111D95
:102F600012680391002A01DB079204E0524243F009
:102F700002030792049398F800302E2B10D198F892
:102F800001302A2B08F1010137D1039B1A1D1B6860
:102F90000392002BB8BF4FF0FF3308F102080593EE
:102FA000314D98F8001003222846FDF7E9F840B1AA
:102FB0004023401B03FA00F0049B0343049308F1F1
:102FC000010898F8001029488DF82810062208F109
:102FD0000107FDF7D5F8002834D0254B03BB039B30
:102FE000073323F0070308330393099B4B440993EA
:102FF0004CE700FB0232012186E7002305931846C7
:103000000A258846013198F80020303A092A03D968
:10301000002BC5D00590C3E705FB00200123F0E796
:1030200003AB00932246134B04A93046AFF3008054
:10303000B0F1FF3F8146D8D1A3895B063FF57DAF54
:1030400009987CE703AB009322460A4B04A930465B
:1030500000F088F8ECE700BFDC390008203A0008EF
:10306000FC390008BC390008263A00082A3A000852
:1030700000000000292E00082DE9F04791461F4668
:103080008A680B69DDF820809342B8BF1346C9F8FF
:10309000003091F8432006460C4612B10133C9F8BE
:1030A00000302368990642BFD9F800300233C9F8CE
:1030B0000030256815F0060507D104F1190AE36808
:1030C000D9F800209B1A9D4229DB94F843302268EE
:1030D000003318BF012392062ED404F1430239466F
:1030E0003046C047013021D02368E568D9F8002078
:1030F00003F00603042B08BFAD1AA36822690CBFB6
:1031000025EAE57500259342C4BF9B1AED184FF0E0
:1031100000091A344D451BD10020BDE8F08701237A
:10312000524639463046C047013003D14FF0FF3098
:10313000BDE8F0870135C2E7E1185A1C302081F85C
:103140004300224494F8451082F843100233C4E748
:103150000123224639463046C0470130E6D009F106
:103160000109D7E72DE9F04317460A7E85B06E2A9C
:10317000984606460C460C9B01F1430E00F0BC80BD
:103180001AD8632A2ED00AD8002A00F0C880582AFC
:1031900000F08A8004F1420584F842202AE0642A83
:1031A00001D0692AF6D121681A6811F0800F23D066
:1031B000111D1960136827E0732A00F0B48008D845
:1031C0006F2A2AD0702AE5D10A6842F020020A60EC
:1031D00003E0752A21D0782ADCD1782284F84520B2
:1031E0006E4964E01A6801F14205111D1960136807
:1031F00084F842300123A3E011F0400F02F10401F2
:103200001960D7D0B2F90030002B03DA2D225B42CF
:1032100084F8432062490A2217E02068196810F0F8
:10322000800F03D0081D18600B6806E010F0400FF7
:1032300001F104001860F7D00B8859496F2A14BFB8
:103240000A220822002084F843006568A560002D4A
:10325000C0F29C80206820F004002060002B3FD149
:10326000002D40F095807546082A0BD12368DA07B7
:1032700008D5236962689A42DEBF302305F8013C15
:1032800005F1FF35AEEB05032361CDF800803B4629
:1032900003AA21463046FFF7EFFE013055D14FF02B
:1032A000FF3005B0BDE8F08381F845203C49226835
:1032B000186812F0800F00F104051D6001D003684A
:1032C00002E05506FBD50388D00744BF42F0200238
:1032D00022601BB9226822F0200222601022B1E78E
:1032E0007546B3FBF2F002FB1033CB5C05F8013DF1
:1032F00003460028F5D1B7E708681A68496910F055
:10330000800F04D0101D18601368196007E010F0DA
:10331000400F02F1040018601368F6D019800023F2
:1033200023617546B1E71A68111D19601568626856
:1033300000212846FCF724FF08B1401B6060636849
:103340002361002384F843309FE723692A463946E6
:103350003046C0470130A2D023689B0707D500251F
:1033600004F11909E368039A9B1A9D4205DBE068A2
:10337000039B9842B8BF184693E701234A46394653
:103380003046C04701308AD00135EBE7002BA7D18A
:103390000B7884F8423004F1420565E7423A0008B0
:1033A000313A000838B5064C00230546084623602C
:1033B000FFF77EFA431C02D1236803B12B6038BDAE
:1033C000B404002010B50C46B1F90E1000F04AFA12
:1033D0000028ABBF636DA3891B1823F48053ACBFD7
:1033E0006365A38110BD2DE9F0411F468B89DB0584
:1033F00005460C46164605D502230022B1F90E10EB
:1034000000F0B8F9A389B4F90E1023F48053A38116
:1034100032463B462846BDE8F04100F069B810B599
:103420000C46B1F90E1000F0A5F9431CA38915BF95
:10343000606523F4805343F48053A38118BFA381B4
:1034400010BDB1F90E1000F0D3B80000F8B50E466B
:103450001446054618B183690BB9FFF797FB214B5A
:103460009C422AD16C68A369A360A3891A072ED550
:10347000236963B323692068C01A6369F6B298426E
:10348000374604DB2146284600F04AF928BBA368EA
:10349000013BA36023685A1C22601E7063690130DF
:1034A000984204D0A389DB0719D50A2E17D12146EB
:1034B000284600F035F990B10FE00B4B9C4201D14A
:1034C000AC68D0E7094B9C4208BFEC68CBE72146CB
:1034D000284600F01FF80028CCD04FF0FF373846C0
:1034E000F8BD00BFDC390008FC390008BC39000811
:1034F00038B5074C054608461146002222601A4698
:10350000FFF7BCF9431C02D1236803B12B6038BD1F
:10351000B4040020324B70B51D6806460C4625B138
:10352000AB6913B92846FFF731FB2E4B9C420FD1F4
:103530006C68B4F90C309AB215072CD4D00611D4AB
:103540000922326043F04003A3814FF0FF3070BD89
:10355000254B9C4201D1AC68EBE7244B9C4208BF51
:10356000EC68E6E7510712D5616B41B104F1440301
:10357000994202D03046FFF793FB00236363A3898F
:1035800023F02403A3810023636023692360A389BC
:1035900043F00803A38123694BB9A38903F4207383
:1035A000B3F5007F03D02146304600F019F9A28917
:1035B00012F001030CD00023A36063695B42A36196
:1035C000236953B9B4F90C3013F08000BAD170BD3F
:1035D000920758BF6369A360F2E70020F7E700BFD6
:1035E00010000020DC390008FC390008BC39000854
:1035F00038B5064C0023054608462360FFF766F9F8
:10360000431C02D1236803B12B6038BDB4040020F1
:103610008A892DE9F041054610070C465AD44B68BB
:10362000002B05DC0B6C002B02DC0020BDE8F081D8
:10363000E66A002EF9D0002312F480522F682B6026
:1036400033D0606DA3895A0705D56368C01A636BD0
:103650000BB1236CC01A00230246E66A216A284691
:10366000B047431CA38906D129681D294BD82B4A92
:10367000CA40D60747D500226260D9042269226079
:1036800004D5421C01D12B6803B96065616B2F60C2
:103690000029CAD004F14403994202D02846FFF71A
:1036A000FFFA00206063BDE8F081216A012328460B
:1036B000B047411CC6D12B68002BC3D01D2B01D0B5
:1036C000162B01D12F60B0E7A38943F04003A381FB
:1036D000BDE8F0810F69002FA7D093070E6808BFDF
:1036E0004B690F6018BF0023A6EB07088B60B8F189
:1036F000000F9ADD43463A46216AA66A2846B0473B
:10370000002807DCA38943F04003A3814FF0FF307A
:10371000BDE8F0810744A8EB0008E8E7010040207D
:1037200038B50B6905460C46DBB118B183690BB996
:10373000FFF72CFA0C4B9C4209D16C68B4F90C30A1
:103740007BB121462846BDE83840FFF761BF074BF3
:103750009C4201D1AC68F1E7054B9C4208BFEC6884
:10376000ECE7002038BD00BFDC390008FC39000858
:10377000BC39000838B5074C0546084611460022FA
:1037800022601A46FFF7BAF8431C02D1236803B13E
:103790002B6038BDB404002070B50E46B1F90E1090
:1037A000002990B014461D4607DA00232B60B38928
:1037B0001A0610D44FF480630EE001AA00F064F8FA
:1037C0000028F2DB029A02F47042A2F500535A423A
:1037D0005A412A60EEE740230020236010B070BDFC
:1037E0008B8973B59D0706460C4607D504F1470340
:1037F000236023610123636102B070BD01AB6A469F
:10380000FFF7CAFF009905463046FFF797FA48B917
:10381000B4F90C309A05EFD423F0030343F002030C
:10382000A381E3E70D4BB362A389206043F08003DB
:10383000A381009B6361019B20615BB1B4F90E1011
:10384000304600F033F828B1A38923F0030343F096
:103850000103A381A3891D43A581CDE70D2B00089A
:103860007047704738B5074C054608461146002298
:1038700022601A46FFF74AF8431C02D1236803B1BD
:103880002B6038BDB404002038B5074C0023054632
:10389000084611462360FFF721F8431C02D1236834
:1038A00003B12B6038BD00BFB404002038B5064C0E
:1038B0000023054608462360FFF718F8431C02D191
:1038C000236803B12B6038BDB4040020F8B500BFF5
:1038D000F8BC08BC9E467047F8B500BFF8BC08BCF1
:0438E0009E46704749
:1038E4001200000024000000360000004000000028
:1038F400060000000C0000001000000000000000A2
:10390400010000000200000003000000010402089E
:1039140054657374000000000100000003000000FF
:103924000500000001000000010000000600000086
:103934000A00000020000000020000000400000053
:10394400080000001000000040000000800000009B
:103954000001000000020000000000000000000060
:103964000000000000000000010000000200000050
:103974000300000004000000A0860100400D0300C5
:10398400801A060000350C0040420F0080841E009F
:1039940000093D0000127A000024F40000366E0194
:1039A4000048E801006CDC02000000000000000098
:1039B4000000000000000000000000000000000003
:1039C40000000000000000000000000000000000F3
:1039D40000000000000000000000000000000000E3
:1039E40000000000000000000000000000000000D3
:1039F40000000000000000000000000000000000C3
:103A040000000000000000000000000000000000B2
:103A1400000000000000000014000020232D302BC3
:103A24002000686C4C0065666745464700303132BB
:103A34003334353637383941424344454600303112
:103A44003233343536373839616263646566000071
:083A5400FCC7FF7F0100000028
:043A5C0065010008F8
:043A60004101000818
:103A6400010000001000000000093D0014000020C7
:103A740000000000DC390008FC390008BC390008EB
:103A84000000000000000000000000000000000032
:103A94000000000000000000000000000000000022
:103AA4000000000000000000000000000000000012
:103AB4000000000000000000000000000000000002
:103AC40000000000000000000000000000000000F2
:0400000508002A3194
:00000001FF
