:020000040800F2
:10000000000003202D3C0008053B0008073B0008CA
:10001000093B00080B3B00080D3B000800000000F6
:100020000000000000000000000000000F3B00087E
:10003000113B000800000000133B0008153B0008BE
:100040007D3C00087D3C00087D3C00087D3C0008AC
:100050007D3C00087D3C00087D3C00087D3C00089C
:100060007D3C00087D3C00087D3C00087D3C00088C
:100070007D3C00087D3C00087D3C00087D3C00087C
:100080007D3C00087D3C00087D3C00087D3C00086C
:100090007D3C00087D3C00087D3C00087D3C00085C
:1000A0007D3C00087D3C00087D3C00087D3C00084C
:1000B0007D3C00087D3C00087D3C00087D3C00083C
:1000C0007D3C00087D3C00087D3C00087D3C00082C
:1000D0007D3C00087D3C00087D3C00087D3C00081C
:1000E0007D3C00087D3C00087D3C00087D3C00080C
:1000F0007D3C00087D3C00087D3C00087D3C0008FC
:100100007D3C00087D3C00087D3C00087D3C0008EB
:100110007D3C00087D3C00087D3C00087D3C0008DB
:100120007D3C00087D3C00087D3C00087D3C0008CB
:0C0130007D3C00087D3C00087D3C000880
:1001400010B5054C237833B9044B13B10448AFF311
:1001500000800123237010BDA801002000000000D2
:10016000F03C000808B5034B1BB103490348AFF34B
:10017000008008BD00000000AC010020F03C000839
:1001800053B94AB9002908BF00281CBF4FF0FF31FE
:100190004FF0FF3000F07AB9ADF1080C6DE904CEF4
:1001A00000F006F8DDF804E0DDE9022304B0704752
:1001B0002DE9F0478C460D460446089E002B51D190
:1001C0008A4217466DD9B2FA82FEBEF1000F0BD0FB
:1001D000CEF1200C01FA0EF520FA0CFC02FA0EF713
:1001E0004CEA050C00FA0EF44FEA174A250CBCFB4A
:1001F000FAF81FFA87F90AFB18CC45EA0C4508FB08
:1002000009F3AB420AD9ED1908F1FF3280F02381DE
:10021000AB4240F22081A8F102083D44ED1AA4B29D
:10022000B5FBFAF00AFB105544EA054400FB09F956
:10023000A14509D9E41900F1FF3380F00A81A145F5
:1002400040F2078102383C44A4EB090440EA08402C
:100250000021002E61D024FA0EF400233460736074
:10026000BDE8F0878B4207D9002E54D0002186E8E4
:1002700021000846BDE8F087B3FA83F1002940F079
:100280008E80AB4202D3824200F2FA80841A65EB80
:1002900003050120AC46002E3FD086E81010BDE8D3
:1002A000F08712B90127B7FBF2F7B7FA87FEBEF164
:1002B000000F34D1EB1B3A0C1FFA87FC0121B3FB72
:1002C000F2F8250C02FB183345EA03450CFB08F352
:1002D000AB4207D9ED1908F1FF3002D2AB4200F270
:1002E000D1808046ED1AA3B2B5FBF2F002FB1055A7
:1002F00043EA05440CFB00FCA44507D9E41900F1CE
:10030000FF3302D2A44500F2B8801846A4EB0C04D7
:1003100040EA08409DE731463046BDE8F087CEF11F
:10032000200405FA0EF307FA0EF720FA04F83A0C47
:1003300025FA04F448EA0308B4FBF2F14FEA184541
:1003400002FB11441FFA87FC45EA044501FB0CF34C
:10035000AB4200FA0EF409D9ED1901F1FF3080F03B
:100360008A80AB4240F2878002393D44EB1A1FFA83
:1003700088F5B3FBF2F002FB103345EA034500FBBE
:100380000CF3AB4207D9ED1900F1FF386FD2AB4245
:100390006DD902383D44EB1A40EA01418FE7C1F1C3
:1003A000200722FA07F88B4005FA01F448EA030314
:1003B00020FA07FE4FEA134CFD404EEA040EB5FB4F
:1003C000FCF94FEA1E440CFB19551FFA83F844EA66
:1003D000054509FB08F4AC4202FA01F200FA01FA01
:1003E00008D9ED1809F1FF3043D2AC4241D9A9F147
:1003F00002091D442D1B1FFA8EFEB5FBFCF00CFB01
:1004000010554EEA054400FB08F8A04507D9E4184A
:1004100000F1FF3529D2A04527D902381C4440EA13
:100420000940A4EB0804A0FB02894C45C6464D4692
:1004300015D312D056B1BAEB0E0364EB050404FADF
:1004400007F7CB401F43CC40376074600021BDE804
:10045000F0871846F8E69046E0E6C245EAD2B8EBE7
:10046000020E69EB03050138E4E72846D7E740466A
:1004700091E78146BEE7014678E702383C4445E70C
:10048000084608E7A8F102083D442BE7704700BF83
:1004900038B5104C236805460BB9012038BD00F073
:1004A00045FE22684FF47A73B3FBF2F3B0FBF3F02E
:1004B00000F094F804460028EFD10F2DEDD8024645
:1004C00029464FF0FF3000F049F8034B20461D60ED
:1004D00038BD00BF0400002008000020094A13684E
:1004E00043F4807310B50320136000F025F800205A
:1004F000FFF7CEFF044618B903F083FA204610BD7B
:100500000124FBE700400058034A044913680968C6
:100510000B441360704700BF7C02002004000020E1
:10052000014B1868704700BF7C020020014B18681F
:10053000704700BF08000020074AD36823F4E06337
:100540001B041B0C43F0BF63000243F4003300F4B0
:10055000E0600343D360704700ED00E0174B30B517
:10056000DC68C4F30224C4F10703251D042B28BF53
:100570000423062D4FF0010505FA03F303F1FF33C1
:100580008CBF033C00241940A14005FA04F4013C4F
:100590002240002842EA01024FEA0212AFBF00F1F6
:1005A000604000F00F00064BD2B2A5BF00F56140DD
:1005B000D2B21A5480F8002330BD00BF00ED00E035
:1005C00014ED00E04209012300F01F0003FA00F0DF
:1005D000014B43F82200704700E100E00138B0F120
:1005E000807F0AD2064B074A5860F02182F8231018
:1005F0000020072298601A6070470120704700BFF2
:1006000010E000E000ED00E04309012200F01F00CF
:1006100002FA00F04033024A42F82300704700BF5C
:1006200000E100E04309012200F01F0002FA00F09F
:100630006033024A42F82300704700BF00E100E047
:100640002DE9F04F554AD1F8008000234FF00F09F3
:1006500038FA03F401D1BDE8F08F012404FA03FA5B
:1006600018EA0A0500F08F804C6824F0100BBBF1EB
:10067000020F11D1DF0800EB870703F0070E3E6A77
:100680004FEA8E0E09FA0EFC26EA0C0C0E6906FAE9
:100690000EF646EA0C063E624FEA430C0327066854
:1006A00007FA0CF7FF4304F0030E3E400EFA0CFE6F
:1006B0000BF1FF3B4EEA0606BBF1010F066011D8B5
:1006C000866806EA070BCE6806FA0CFE4EEA0B06B1
:1006D0008660466826EA0A0AC4F300169E4046EA87
:1006E0000A064660C66837408E6806FA0CF637433D
:1006F000E600C76047D523F0030707F1804707F5F9
:10070000803703F0030EBE684FEA8E0E09FA0EFC26
:10071000B0F1904F26EA0C0C37D0214EB04236D0C3
:1007200006F58066B04234D006F58066B04232D01D
:1007300006F58066B04214BF0726042606FA0EF6B8
:1007400046EA0C06BE60D2F88060EF4314F4803FA6
:100750000CBF3E402E43C2F88060D2F8846014F48F
:10076000003F0CBF3E402E43C2F88460166814F46C
:10077000801F0CBF3E402E4316605668A40254BF33
:100780003E402E435660013362E70026D6E701263D
:10079000D4E70226D2E70326D0E700BF00080058BE
:1007A00000040048024A136843F4807313607047E2
:1007B00000040058024B186800F4C060704700BF86
:1007C000000400584FF0B0431868C0F34040704731
:1007D0004FF0B0431868C0F3802070474FF0B0432B
:1007E000D3F89400C0F3400070474FF0B04318684E
:1007F000C0F3400070474FF0B042136823F0F0039D
:100800001843106070474FF0B043186800F0F000D4
:10081000B02828BFB02070474FF0B042536823F48F
:100820007F4343EA0020506070474FF0B0431868A0
:10083000C0F3406070470000B028324B324A98BF86
:100840000009F0B58CBFDD6A53F820502F4C4FF0F3
:10085000B0438DB0D3F8083103F00F0304AE52F863
:100860002330B5FBF3F52A4BB5FBF3F5FFF7A2FFF9
:10087000074694E80F0086E80F0004F1100207CA4B
:1008800001AB1C3483E8070094E80F00B7F5007F44
:100890000CAC04E90F001FD1002356F82320954229
:1008A00015D80CAA02EB830353F8104C194D2B6892
:1008B00023F0070323432B60FFF732FE06462B6825
:1008C00003F007039C4216D100200DB0F0BD0133A8
:1008D000042BE2D10024E9E7019B9D4207D9029B4A
:1008E0009D4206D9039B9D42F4D80223D9E70023F9
:1008F000D7E70123D5E7FFF713FE801B0228DED9D7
:100900000320E2E7F43D0008943D0008083D00089C
:1009100040420F0000400058F8B5044608B90120D5
:10092000F8BD03689D0629D54FF0B0429368D268A0
:1009300013F00C0305D00C2B45D102F00303012B5F
:1009400041D1FFF752FF10B1E369002BE7D0626A93
:10095000FFF759FF8242606A2AD9FFF76DFF00282E
:10096000DDD1606AFFF747FF206AFFF755FF03F00C
:1009700007F90020FFF78CFD0028D0D12368D807A5
:100980004ED42368990700F19880236813F0180F5C
:1009900040F0D98023685A0700F1658123685A0620
:1009A00000F1B781E16A002940F0DF810020F8BD45
:1009B000FFF721FF206AFFF72FFF606AFFF73CFF78
:1009C0000028D4D0ABE7E2694FF0B043BAB11A685F
:1009D00042F001021A60FFF7A3FD0546FFF705FF8D
:1009E00030B1606AFFF707FF206AFFF715FFC5E720
:1009F000FFF796FD401B0228F0D90320F8BD1A68C6
:100A000022F001021A60FFF78BFD0546FFF7EDFEAD
:100A10000028B3D0FFF784FD401B0228F6D9ECE78D
:100A20004FF0B0429368D26803F00C03082B05D056
:100A30000C2B0BD102F00303032B07D1FFF7C2FEEF
:100A400000289ED06368002B9BD168E76268B2F5EE
:100A5000803F4FF0B04310D11A6842F480321A60E0
:100A6000FFF75EFD0546FFF7ADFE002889D1FFF7D1
:100A700057FD401B6428F6D9BFE7B2F5A02F04D17B
:100A80001A6842F480221A60E6E7196821F480317E
:100A90001960196821F480211960002AE0D1FFF75C
:100AA0003FFD0546FFF78EFE00283FF46AAFFFF7D3
:100AB00037FD401B6428F5D99FE74FF0B04293689B
:100AC000D26803F00C03042B05D00C2B14D102F0D8
:100AD0000303022B10D1FFF77BFE18B1E368002B54
:100AE0003FF41DAF4FF0B0422169536823F0FE433D
:100AF00043EA0163536048E7E2684FF0B04382B1D4
:100B00001A6842F480721A60FFF70AFD0546FFF783
:100B10005FFE0028E6D1FFF703FD401B0228F6D94F
:100B20006BE71A6822F480721A60FFF7F9FC054639
:100B3000FFF74EFE00283FF428AFFFF7F1FC401B03
:100B40000228F5D959E762694FF0B045002A6BD009
:100B5000DB0643D5FFF742FE10B34FF0B045D5F8A2
:100B6000943043F00403C5F89430FFF7D9FC0646EF
:100B7000D5F894301F0740F17881D5F89430A269F8
:100B800023F4706343EA0223C5F89430D5F8943017
:100B900023F00103C5F89430FFF7C2FC054618E0C6
:100BA000D5F8943043F00103C5F89430FFF7B8FC52
:100BB0000546FFF713FE0028CFD1FFF7B1FC401B1D
:100BC0000228F6D919E7FFF7ABFC401B02283FF6D5
:100BD00014AFFFF703FE0028F5D1DBE6D5F894301B
:100BE00043F00103C5F89430FFF79AFC0646FFF77F
:100BF000F5FD98B14FF0B0431D46D3F8942022F094
:100C00000402C3F89420D5F8943018077FF5C2AEDB
:100C1000FFF786FC801B0328F5D9EEE6FFF780FC82
:100C2000801B0228E3D9E8E6D5F8943023F00403CA
:100C3000C5F89430FFF774FC0646D5F894301907D0
:100C400040F11A81FFF76CFC801B0328F5D9D4E62C
:100C5000FFF766FC401B02283FF6CFAEFFF7BEFD54
:100C60000028F5D196E6894D2B68DB051CD5A368D5
:100C7000012B4FF0B04525D1D5F8903043F001035A
:100C8000C5F89030FFF74CFC4FF0B047064641F2F4
:100C90008835D7F8903098073FF580AEFFF740FCD5
:100CA000801BA842F5D9A8E6FFF77CFDFFF738FCCA
:100CB00006462B68DF05DAD4FFF732FC801B0228DA
:100CC000F7D99AE6052B06D1D5F8903043F0040306
:100CD000C5F89030D0E7D5F8902022F00102C5F891
:100CE0009020D5F8902022F00402C5F89020002B27
:100CF000C8D1FFF715FC41F288360746D5F8903089
:100D000099077FF54BAEFFF70BFCC01BB042F5D93E
:100D100073E6A36A4FF0B0459BB1D5F8983043F025
:100D20000103C5F89830FFF7FBFB0646D5F898306D
:100D30009A073FF537AEFFF7F3FB801B0228F5D982
:100D40005BE6D5F8983023F00103C5F89830FFF73B
:100D5000E7FB0646D5F898309B077FF523AEFFF7F3
:100D6000DFFB801B0228F5D947E64FF0B0439A68B5
:100D700002F00C020C2A52D01A68022922F080726A
:100D80001A6034D1FFF7CCFB0546FFF74EFD40BBA0
:100D90004FF0B042616B236BD0680B433C4901407C
:100DA0000B43E16B0B43216C0B43616C0B43A16B59
:100DB00043EA0123D360136843F080731360D36860
:100DC00043F08053D360FFF7ABFB0446FFF72DFDE4
:100DD00000287FF4EBADFFF7A3FB001B0228F5D939
:100DE0000BE6FFF79DFB401B0228CED905E6DA682B
:100DF00022F00302DA60DA6822F0885222F48032AC
:100E0000DA60FFF78DFB0446FFF70FFD00283FF483
:100E1000CDADFFF785FB001B0228F5D9EDE5D868BD
:100E2000236B00F003029A427FF479AD626B00F00D
:100E3000700393427FF473ADA26BC0F30623934219
:100E40007FF46DADE26B00F4781393427FF467ADED
:100E5000226C00F0606393427FF461AD636C00F03C
:100E60006040C01A18BF0120F8BDFFF759FB801B76
:100E700003287FF67DAEC0E5D5F8943023F001035A
:100E8000C5F89430FFF74CFB0546E7E60004005830
:100E90008C80C1112DE9F0410D46044610B90120A6
:100EA000BDE8F081794E336803F007038B4272D3BB
:100EB000236899070ED54FF0B046A268B36823F0B7
:100EC000F0031343B360FFF72BFB0746B368DB0364
:100ED00040F1B88023689A0611D54FF0B046626998
:100EE000D6F8083123F0F0031343C6F80831FFF7B2
:100EF00017FB0746D6F80831990340F1AA8023680A
:100F0000580612D54FF0B046A269D6F8083123F042
:100F10000F0343EA1213C6F80831FFF701FB074637
:100F2000D6F80831DB0340F19B8023685A070ED5C1
:100F30004FF0B046E268B36823F4E0631343B36054
:100F4000FFF7EEFA0746B368990340F190802368F3
:100F500018070FD54FF0B0462269B36823F46053E9
:100F600043EAC203B360FFF7DBFA0746B3685B03EB
:100F700040F184802368DA0723D4444C236803F0CB
:100F800007039D424BD302F0FBFDFFF7CFFABDE80C
:100F9000F041FFF77DBA336823F007030B4333605A
:100FA000FFF7BEFA0746336803F007039D423FF49C
:100FB0007FAFFFF7B5FAC01B0228F4D90320BDE8C4
:100FC000F0816368022B1ED1FFF7FCFB00283FF481
:100FD00066AF4FF0B0466268B36823F00303134373
:100FE000B360FFF79DFA41F288380746B36862683C
:100FF00003F00C03B3EB820FBFD0FFF791FAC01BD5
:101000004045F3D9DAE7032B02D1FFF70EFCDDE709
:1010100013B9FFF7EAFBD9E7FFF7DAFBD6E7236856
:1010200023F007032B432360FFF77AFA0646236871
:1010300003F007039D42A6D0FFF772FA801B022837
:10104000F5D9BBE7FFF76CFAC01B02287FF63EAF6D
:10105000B4E7FFF765FAC01B02287FF64BAFADE798
:10106000FFF75EFAC01B02287FF65AAFA6E7FFF72C
:1010700057FAC01B02287FF666AF9FE7FFF750FACA
:10108000C01B02287FF672AF98E700BF00400058EF
:101090004FF0B04208B5936813F00C0307D1FFF787
:1010A000B2FB1F4BC0F3031053F8200008BD042B04
:1010B00033D0082B07D113681A4813F4801F1A4B3A
:1010C00008BF184608BDD36803F00303022B22D0E3
:1010D000032B18D11368144813F4801F114B08BF59
:1010E00003464FF0B042D068D168D268C0F3062002
:1010F0005843C1F302130133B0FBF3F0530F013334
:10110000B0FBF3F008BDFFF77EFB054BC0F3031007
:1011100053F82030E5E7034BE3E7024808BD00BF82
:10112000F43D00080024F4000048E80108B5FFF78A
:10113000AFFF4FF0B043044A9B68C3F3031352F868
:101140002330B0FBF3F008BD943D000808B5FFF76D
:10115000EDFF4FF0B043054A9B68C3F3022352F8FA
:10116000233003F01F03D84008BD00BFD43D000862
:1011700008B5FFF7DBFF4FF0B043054A9B68C3F3A8
:10118000C22352F8233003F01F03D84008BD00BF2C
:10119000D43D00084FF0B043D3F89000C0F34000B6
:1011A00070474FF0B0410209D1F8883002F47F2235
:1011B000000123EA020300F47F201843C1F88800ED
:1011C00070474FF0B042136843F08063136070477C
:1011D0004FF0B042136823F08063136070474FF004
:1011E000B0431868C0F3C0607047F8B5056815F0E3
:1011F0004005044643D0036BB3F5800F15D002D8E9
:10120000D3B101253BE0B3F5000F02D0B3F5400F99
:10121000F7D14FF0B042216BD2F8883023F440036D
:101220000B43C2F88830002529E04FF0B042D36864
:1012300043F48033D360ECE7FFF7CAFFFFF770F9A0
:101240000546FFF7CCFFA0B94FF0B04261681369C3
:1012500023F4FE4343EA012313611369A16823F4D5
:1012600078130B431361FFF7ACFFFFF759F90546FD
:10127000BAE0FFF755F9401B0228E2D9032523689D
:101280001A0515D54FF0B046236CD6F8907007F4C8
:101290004077BB420CD0FFF785FAD6F89030002F8C
:1012A00040F0AD80226C23F440731343C6F89030B5
:1012B0002368DF0709D54FF0B041A069D1F8882035
:1012C00022F003020243C1F888209E0709D54FF09F
:1012D000B041E069D1F8882022F440620243C1F8AD
:1012E0008820D8060CD5A66A4FF0B040310CD0F853
:1012F0008820090422EA010242EA0642C0F8882056
:1013000099060CD5E66A4FF0B040310CD0F8882031
:10131000090422EA010242EA0642C0F888205A077C
:1013200002D5206AFFF73DFF23681B0702D5606ADC
:10133000FFF737FF2368DF0510D54FF0B042616B30
:10134000D2F8883023F040630B43B1F1006FC2F84C
:1013500088307DD1D36843F08073D36022689605CE
:1013600009D54FF0B041A06BD1F8883023F040434D
:101370000343C1F88830500511D54FF0B042E16BFE
:10138000D2F8883023F040530B43B1F1005FC2F82C
:10139000883040F09480D36843F48033D36022686F
:1013A000D10409D54FF0B041606CD1F8943023F4EA
:1013B00040430343C1F8943093040DD54FF0B0423D
:1013C000E16C536A23F030030B435362536AA16C00
:1013D00023F003030B4353622846F8BDFFF7A0F840
:1013E000401B02283FF64AAFFFF7F9FE0128F5D16E
:1013F0004FF0B042616913690B43136109E7D6F8F6
:10140000902042F48032C6F89020D6F8902022F442
:101410008032C6F89020226C23F440731343C6F840
:101420009030D6F89030DB077FF542AFFFF778F8C1
:1014300041F28836074604E0FFF772F8C01BB0425D
:1014400004D8FFF7A7FE0128F6D131E703252FE7DF
:10145000B1F1806F82D1FFF7BBFEFFF761F806465E
:10146000FFF7BDFEA0B94FF0B0426168136923F4E5
:10147000FE4343EA012313611369E16823F06063CB
:101480000B431361FFF79DFEFFF74AF806460BE09A
:10149000FFF746F8801B0228E2D903255EE7FFF735
:1014A0003FF8801B0228F8D8FFF799FE0128F6D1F3
:1014B0004FF0B042616913690B4313614EE7B1F11C
:1014C000805F7FF46CAFFFF783FEFFF729F80646D5
:1014D000FFF785FEA0B94FF0B0426168136923F4AD
:1014E000FE4343EA012313611369216923F060433A
:1014F0000B431361FFF765FEFFF712F806460BE09A
:10150000FFF70EF8801B0228E2D9032547E7FFF713
:1015100007F8801B0228F8D8FFF761FE0128F6D1F2
:101520004FF0B042616913690B43136137E70268FA
:1015300038B5D36823F0A003D3600446FEF7F0FF6C
:1015400005462368DB689B0601D5002038BDFEF701
:10155000E7FF401BB0F57A7FF3D9032038BD38B5DB
:101560000368DA685206044601D5002038BD4FF002
:10157000FF32DA60FEF7D4FF05462368DB685B06BE
:10158000F3D4FEF7CDFF401BB0F57A7FF5D90320E9
:1015900038BD38B50446D8B190F8213003F0FF02C9
:1015A0001BB980F8202002F03BFA022384F8213096
:1015B0002368CA225A6253225A622046FFF7CFFF9D
:1015C0002368054630B1FF225A62042384F8213093
:1015D000012538E09A68206922F4E00222F04002F6
:1015E0009A60626899680243A06902430A439A605C
:1015F000E2681A611A69A168606942EA01421A61E7
:10160000DA6822F08002DA60DA6C22F00302DA642F
:10161000E269D96C02430A43DA649B689B060CD4E6
:101620002046FFF784FF40B12368FF225A6204235B
:1016300084F8213084F82050CAE72368FF225A62D8
:10164000012384F82130284638BD70B504460028AF
:101650004AD00023836290F85D3003F0FF021BB98B
:1016600080F85C2002F0ECF90223216884F85D30F8
:101670000B68E26823F04003B2F5E06F0B604FF0B7
:1016800000032ED91846B2F5706F18BFA362236B02
:101690002BB9B2F5E06F8CBF022301232363A66848
:1016A0006368A56933432669334366693343E66952
:1016B0003343266A3343A66A334305F40076334343
:1016C0000B60636A1A43636B2D0C1A4305F0040523
:1016D0002A430243012300204A60206684F85D30DB
:1016E00070BD4FF48050D0E7012070BD00000000B5
:1016F0000268C16983682DE9F048044600691568ED
:10170000034360690343606E0B430343AC482840C6
:10171000034313605368E06823F44053034353606A
:10172000A84BA0699A421CBF236A1843936823F010
:101730006E4323F4306303439360D06A636A20F0FE
:101740000F001843D062A04882421AD14FF0B04235
:101750009E48D2F8882002F00302B1F5004F825C67
:1017600002F1FF3200F02082072A00F2E783DFE86F
:1017700012F027034903E5038C03E503E503E503C2
:10178000A5039048824240F0D5834FF0B042D2F892
:10179000882002F44062B2F5806F00F094800CD88B
:1017A000CAB301220123A4F86A30A4F868300023E8
:1017B000E36623671046BDE8F088B2F5006F64D099
:1017C000B2F5406FEDD1002B00F0E180012B00F06D
:1017D000E180022B00F0E180032B00F0E180042B7C
:1017E00000F0E180052B00F0E180062B00F0E180A5
:1017F000072B00F0E180082B00F00081092B00F09E
:1018000000810A2B00F000810B2B14BF4FF4004025
:101810008020082393E0FFF799FC636AFBB1012B5A
:101820001FD0022B1FD0032B1FD0042B1FD0052B42
:101830001FD0062B1FD0072B1FD0082B1FD0092B22
:101840001FD00A2B1FD00B2B14BF01234FF4807322
:10185000B0FBF3F00023002871D10246A2E7012378
:10186000F6E70223F4E70423F2E70623F0E7082370
:10187000EEE70A23ECE70C23EAE71023E8E720234E
:10188000E6E74023E4E78023E2E7002B52D0012B78
:1018900052D0022B52D0032B69D0042B69D0052BD8
:1018A00069D0062B69D0072B69D0082B69D0092B8A
:1018B00069D00A2B69D046484FF224420B2B08BF4F
:1018C000104602233BE0FFF7E3FB636AE3B1012B21
:1018D0001CD0022B1CD0032B1CD0042B1CD0052B9E
:1018E0001CD0062B1CD0072B1CD0082B1CD0092B7E
:1018F0001CD00A2B1CD00B2B14BF01234FF4807378
:10190000B0FBF3F00423A6E70123F9E70223F7E78E
:101910000423F5E70623F3E70823F1E70A23EFE7BB
:101920000C23EDE71023EBE72023E9E74023E7E76B
:101930008023E5E72648C4E72648C2E726486268D0
:1019400002EB420181423FF62CAFB0EB023F3FF683
:1019500028AF082B00F22581DFE813F0590023019E
:1019600095002301D100230123012301EA001B4834
:10197000A7E71B48A5E71B48A3E71B48A1E71B48AF
:101980009FE71B489DE71B489BE71B4899E74FF4DF
:1019900000403EE74FF480403BE74FF4005038E70B
:1019A00041F2555035E74FF4805032E740F6CC40D5
:1019B0002FE740F6AA202CE74FF4006029E700BF8C
:1019C000F369FFCF0080004000380140613D00080E
:1019D0000024F40000127A0000093D00AAB028009B
:1019E00080841E00006A18005558140040420F0001
:1019F00020A1070090D0030048E801004FF4806068
:101A00009DE74FF4007004E74FF4807001E7FFF7A3
:101A10009DFB636A002B00F08980012B72D0022BA2
:101A200072D0032B72D0042B72D0052B72D0062BF0
:101A300072D0072B72D0082B72D0092B72D00A2BD0
:101A400072D00B2B72D14FF4807200230021FEF76D
:101A500097FB65680F0247EA10670602680816EBF5
:101A6000000B47F1000C2A46002358466146FEF75A
:101A700087FB00229A4BA0F5407199423FF691AE48
:101A80002368D8608EE6636A002B36D0012B16D00F
:101A9000022B16D0032B16D0042B1ED0052B1ED0E4
:101AA000062B1ED0072B20D0082B20D0092B20D0AE
:101AB0000A2B20D00B2B20D18A48002106E08A482F
:101AC000FBE78A48F9E782A1D1E9000155084019EE
:101AD0004FF0000341F10001C9E78548EDE7854873
:101AE000EBE77DA1D1E90001F0E78348E5E7834812
:101AF000E3E78348E1E78348DFE78348DDE7FFF773
:101B0000C7FA86E70222A0E704229EE706229CE7A6
:101B100008229AE70A2298E70C2296E7102294E717
:101B2000202292E7402290E780228EE701228CE774
:101B3000636A9BB3012B16D0022B17D0032B18D04E
:101B4000042B18D0052B19D0062B19D0072B19D030
:101B5000082B1AD0092B1BD00A2B1CD00B2B1DD104
:101B60004FF40040A9E74FF48000A6E74FF40010BF
:101B7000A3E76648A1E74FF480109EE764489CE71E
:101B800064489AE74FF4002097E74FF4802094E7E9
:101B90004FF4003091E74FF480308EE74FF40000AF
:101BA0008BE70122002065E7072A00F20681DFE8C3
:101BB00012F008003F000401760004010401040152
:101BC000C700FFF7D5FA616A00296BD001296BD0F5
:101BD00002296BD003296BD004296BD005296BD067
:101BE00006296BD007296BD008296BD009296BD047
:101BF0000A296BD00B2914BF01224FF4807261684F
:101C0000B0FBF2F24B0803EB4203B3FBF1F39BB2E0
:101C10000022A3F110004FF6EF7188423FF6C1ADEC
:101C200023F00F012068C3F342030B43C360B9E5FF
:101C3000FBB1012B1FD0022B1FD0032B1FD0042B75
:101C40001FD0052B1FD0062B1FD0072B1FD0082B12
:101C50001FD0092B1FD00A2B1FD02F49294A0B2B2D
:101C600014BF13460B46626803EB5203B3FBF2F357
:101C7000CDE7244BF7E71B4BF5E7284BF3E7284B61
:101C8000F1E7284BEFE7284BEDE7284BEBE7284B34
:101C9000E9E7284BE7E7284BE5E7284BE3E7FFF7C1
:101CA000F7F990E70122AAE70222A8E70422A6E7B3
:101CB0000622A4E70822A2E70A22A0E70C229EE758
:101CC00010229CE720229AE7402298E7802296E79C
:101CD00000AAB028000000000055581400000000C1
:101CE000FFFC0F000024F4000000127A0000093D00
:101CF0000080841E00006A180040420F0020A107E7
:101D00000090D0030048E801000024F400551500BD
:101D100000CC0C0000AA0A0048E8010000127A007A
:101D20005461510000093D0000D43000AAB02800E1
:101D300080841E0040420F0020A1070090D00300C5
:101D4000D3B1012B1BD0022B1CD0032B1DD0042B95
:101D50001ED0052B1FD0062B20D0072B21D0082BFF
:101D600022D0092B23D00A2B24D00B2B14BF4FF4E5
:101D700080334FF4807376E74FF4803373E74FF48A
:101D8000004370E74FF480436DE742F6AA236AE709
:101D90004FF4005367E741F6981364E741F2545358
:101DA00061E74FF480535EE74FF400635BE74FF465
:101DB000806358E74FF4007355E70122002328E7BA
:101DC000FFF7D6F9636A002B62D0012B62D0022B99
:101DD00062D0032B62D0042B62D0052B62D0062B7D
:101DE00062D0072B62D0082B62D0092B62D00A2B5D
:101DF00062D00B2B14BF01234FF480736268B0FBD9
:101E0000F3F31CE05BB3012B2BD0022B2BD0032B65
:101E10002BD0042B2BD0052B2BD0062B2BD0072B14
:101E20002BD0082B2BD0092B2BD00A2B2BD0454A9B
:101E30004FF224410B2B14BF13460B46626803EB91
:101E40005203B3FBF2F300229BB2A3F110004FF652
:101E5000EF7188423FF6A5AC2168CB60A2E4394B14
:101E6000ECE7394BEAE7394BE8E7394BE6E7394B22
:101E7000E4E7394BE2E7394BE0E7394BDEE7394B32
:101E8000DCE7394BDAE7394BD8E7FFF701F999E797
:101E90000123B3E70223B1E70423AFE70623ADE74D
:101EA0000823ABE70A23A9E70C23A7E71023A5E73C
:101EB0002023A3E74023A1E780239FE7CBB1012B99
:101EC0001AD0022B1BD0032B1CD0042B1DD0052BAA
:101ED0001ED0062B1FD0072B20D0082B21D0092B7A
:101EE00022D00A2B23D00B2B14BF4FF400438023A6
:101EF000A4E74FF40043A1E74FF480439EE74FF47B
:101F000000539BE741F2555398E74FF4805395E710
:101F100040F6CC4392E740F6AA238FE74FF40063E4
:101F20008CE74FF4806389E74FF4007386E74FF442
:101F3000807383E7B1F5004F3FF43FAF01220023E8
:101F400083E700BF0024F40000127A0000093D007E
:101F5000AAB0280080841E00006A1800555814009A
:101F600040420F0020A1070090D0030048E8010084
:101F7000836ADA0710B506D50168C46A4A6822F494
:101F8000003222434A609C0706D50168046B4A6808
:101F900022F4803222434A60590706D50168446B17
:101FA0004A6822F4802222434A601A0706D5016853
:101FB000846B4A6822F4004222434A60DC0606D55C
:101FC0000168C46B8A6822F4805222438A609906B1
:101FD00006D50168046C8A6822F4005222438A60A4
:101FE0005A060FD50168446C4A6822F480122243D5
:101FF000B4F5801F4A6005D14A68846C22F4C0029F
:1020000022434A601B0606D50268C16C536823F45C
:1020100000230B43536010BD2DE9F041069D04469B
:102020000F46164698462168CA6937EA02030CBF74
:1020300001220022B24202D00020BDE8F0816B1CD8
:10204000F2D0FEF76DFAA0EB0800854201D3002D17
:10205000E9D123681A6822F4D0721A609A6822F0D3
:1020600001029A602023C4F88030C4F88430002331
:1020700084F87C300320BDE8F08173B50446002667
:10208000C0F88860FEF74CFA23681B681A070546FB
:1020900017D423681B685B070AD56FF07E43009353
:1020A00000222B464FF480012046FFF7B5FFA0B970
:1020B00020230020C4F8803084F87C00C4F88430E9
:1020C0000CE06FF07E430093324603464FF400115C
:1020D0002046FFF7A1FF0028DBD0032002B070BD2F
:1020E00010B5044650B3D0F880301BB980F87C306E
:1020F00001F0D6FC22682423C4F88030136823F052
:10210000010313602046FFF7F3FA012816D0A36AF3
:1021100013B12046FFF72CFF23685A6822F490423F
:102120005A609A6822F02A029A601A6842F0010204
:1021300020461A60BDE81040FFF79FBF012010BD88
:102140001FB503228DF8032007228DF804200022FA
:102150008DF806208DF8072008228DF808208DF8CC
:102160000C20426E0123042102248DF800308DF8EA
:1021700001308DF802308DF805308DF809108DF89A
:102180000A408DF80B108DF80D308DF80E308DF85B
:102190000F302AB9A0F86A30A0F8683004B010BD3A
:1021A00002689368916804AA02EB5171C3F3426319
:1021B00011F8102C11F8081CD20092FBF1F2A0F8D3
:1021C0006A2004AA134413F8102C13F8083CD20018
:1021D00092FBF3F3E0E790F87C30012B14D0026817
:1021E0002423C0F880301168136823F001031360C2
:1021F00021F000510023436611602022C0F88020A6
:1022000080F87C30184670470220704738B590F847
:102210007C30012B04461BD0012380F87C30242322
:10222000C0F8803003681D681A6822F001021A6045
:102230009A6822F0604211439960FFF781FF0368BA
:102240001D602023C0F88030002084F87C0038BD59
:10225000022038BD38B590F87C30012B04461BD0E5
:10226000012380F87C302423C0F8803003681D6887
:102270001A6822F001021A609A6822F06062114323
:102280009960FFF75DFF03681D602023C0F8803070
:10229000002084F87C0038BD022038BD70477047AC
:1022A0007047704770477047704770477047704776
:1022B000704770477047704708B5114B00221A7776
:1022C00083F82420FFF7EAFFFFF7E9FFFFF7E8FFB5
:1022D000FFF7E7FFFFF7E6FFFFF7E5FFFFF7E4FF94
:1022E000FFF7E3FFFFF7E2FFFFF7E1FFFFF7E0FF94
:1022F000FFF7DFFFFFF7DFFFFFF7DCFF08BD00BFE1
:1023000018000020044A92F8243002EB83010133C4
:10231000086282F82430704718000020F8B543782E
:10232000FF2B044606D1B0F8033003F47F43B3F526
:10233000406F04D02046BDE8F84000F081BF104E49
:1023400000253746327FEBB29A4206D956F8233041
:102350002046984701350028F4D0002597F824201E
:10236000EBB29A42E6D907EB830320461B6A9847F3
:1023700001350028F2D0023818BF0120F8BD00BF97
:102380001800002070B5C8B000258DF82000182274
:10239000294602A88DF8075000F084FA3F23ADF8D3
:1023A000083085230DF10704ADF80A3008AE01238B
:1023B000294602A8049605930694079300F000FBB3
:1023C000A842ACBF2078FF2048B070BD70B5C8B03F
:1023D00000268DF823309DF830318DF824309DF89B
:1023E00034318DF825309DF838318DF826304F9BEB
:1023F0008DF820008DF821108DF82220CDF827309F
:1024000018229DF840318DF82B30314602A88DF806
:10241000076000F047FA3F23ADF808308623ADF897
:102420000A300C230DF10705059308AC0123314652
:1024300002A804940695079300F0C2FAB042ACBF1C
:102440002878FF2048B070BD2DE9F041C8B0804623
:102450000F4616460021072268461D4600F022FA64
:102460001822002102A88DF820808DF821708DF8A7
:10247000226000F017FA3F23ADF808308A23ADF848
:102480000A300323059308AC0723002102A8049413
:10249000CDF818D0079300F093FA002816DB9DF8CA
:1024A000000080B9009A9DF80330C2F30F222A8001
:1024B0009DF8042043EA02234E9A1380019B4F9A11
:1024C000C3F30F23138048B0BDE8F081FF20FAE783
:1024D00010B5002488B01822214602A88DF80740C4
:1024E00000F0E0F93F23ADF808309223ADF80A3050
:1024F0000DF1070306932146012302A8079300F07C
:102500005FFAA042ACBF9DF80700FF2008B010BDE5
:1025100070B5C8B00026ADF82000ADF822108DF8D7
:1025200024203146182202A88DF825308DF8076046
:1025300000F0B8F93F23ADF808309723ADF80A3022
:102540000F23039306230DF10705059308AC012320
:10255000314602A804940695079300F031FAB04280
:10256000ACBF2878FF2048B070BD70B5C8B008ACCB
:102570000026ADF82000ADF822108DF82420194671
:1025800006220DF125008DF8076000F089F99DF80D
:102590003031E372BDF83431A381BDF83831E381C5
:1025A000BDF83C312382BDF840316382BDF844312F
:1025B000A3821822BDF84831E382314602A800F018
:1025C00071F93F23ADF808309C23ADF80A300F2392
:1025D000039318230DF1070505933146012302A843
:1025E00004940695079300F0EBF9B042ACBF28784D
:1025F000FF2048B070BD10B5002488B018222146D5
:1026000002A88DF8074000F04DF93F23ADF80830DF
:1026100040F20113ADF80A300DF10703069321468D
:10262000012302A8079300F0CBF9A042ACBF9DF8AC
:102630000700FF2008B010BDF0B5C9B00027ADF805
:102640002000ADF822108DF824204E998DF8253009
:102650001A460DF126001C468DF8077000F020F98F
:102660001822394602A800F01DF93F23ADF80830C2
:102670004FF483730DF10706ADF80A3008AD01235E
:102680000634394602A8049505940696079300F08F
:1026900097F9B842ACBF3078FF2049B0F0BD70B5B3
:1026A000C8B00025ADF820001822294602A88DF8F0
:1026B000075000F0F7F83F23ADF808304FF4897366
:1026C000ADF80A300F23039302230DF1070405939D
:1026D00008AE0123294602A804960694079300F049
:1026E0006FF9A842ACBF2078FF2048B070BDF0B5AC
:1026F000C9B00C46002611468DF8200022460DF187
:1027000022008DF821408DF8076000F0C9F81822EA
:10271000314602A800F0C6F83F23ADF808300C237C
:102720000DF10705ADF80A3008AF01230234314638
:1027300002A8049705940695079300F041F9B0426A
:10274000ACBF2878FF2049B0F0BD70B5C8B00025F7
:102750008DF820008DF821101822294602A88DF846
:10276000075000F09FF83F23ADF808300F23ADF875
:102770000A3002230DF10704059308AE0123294610
:1027800002A804960694079300F01AF9A842ACBF79
:102790002078FF2048B070BD70B5C8B00025ADF8F6
:1027A00020001822294602A88DF8075000F07AF878
:1027B0003F23ADF808301823ADF80A3002230DF19D
:1027C0000704059308AE0123294602A8049606943F
:1027D000079300F0F5F8A842ACBF2078FF2048B07E
:1027E00070BD10B5002488B01822214602A88DF8CB
:1027F000074000F057F80323ADF80830ADF80A3071
:102800000DF1070306932146012302A8079300F068
:10281000D7F8A042ACBF9DF80700FF2008B010BD5C
:1028200070B5C8B00026ADF82630BDF83031ADF82F
:102830002830BDF83431ADF82A30BDF83831ADF864
:102840002C309DF83C31ADF82000ADF82210ADF8E9
:1028500024208DF82E3018229DF840318DF82F302D
:10286000314602A88DF8076000F01CF83F23ADF850
:1028700008304FF4C173ADF80A3010230DF107058D
:10288000059308AC0123314602A8049406950793EA
:1028900000F096F8B042ACBF2878FF2048B070BD79
:1028A00001F012BA01F01BBA1FB5662242726FF036
:1028B000030282722122C272694600F055F99DF826
:1028C0000E0005B05DF804FB08B5437A0E3B012B02
:1028D000014607D8074800F058FB0020BDE8084033
:1028E00000F040BD044800F050FB0348BDE808403C
:1028F00000F034BDC401002040000020034B012043
:102900001872034B1B6803B1184770474000002042
:10291000CC0100207FB5104C104B4A68E0610D4699
:1029200020461A6000F04EF92E680D4D0D4800F05B
:1029300013FB2846EE6000F00FFBFFF7DFFF0123DB
:102940002B7423682BB104A8074A029640F8102D77
:10295000984704B070BD00BFD0010020CC0100201A
:1029600040000020C4010020C928000830B5124CE6
:10297000124D85B0104800F0F2FA08B9237C0BB96B
:1029800005B030BD01A9204600F016FB01232374D9
:10299000EB6933B1019A039202A898479DF8083079
:1029A0002374237C1BB1019800F0CCF9E2E7019974
:1029B000204600F0DEFADDE740000020D0010020D4
:1029C0002C4B1B682DE9F34105460BB100209847BD
:1029D0006C882B88284FEA68F868A968C272C4F32B
:1029E000090444EA8324A4B20026A0F80940D2B224
:1029F0000C303E7201F068F9204BDFF884801B69CF
:102A00003146304698473B7A1BB1002002B0BDE802
:102A1000F08148F2E80000F0A8FC404600F09FFA80
:102A20000028F0D101A9404600F0C6FA019E737A51
:102A30000F2B0CD1B6F80D30A34202BF2B69F27AEE
:102A40001A70337B002BE8D0FFF758FFE5E7B38916
:102A5000A3420CD1B27A6B692869033AD2B29A4286
:102A6000A8BF1A466A6106F10E0101F02DF9F37A4A
:102A7000E8E700BFCC01002040000020D00100208A
:102A8000C401002010B5054C0146204600F07DFA37
:102A90002046BDE8104000F0BCBC00BF5400002040
:102AA000002000F0BABC0000034B01201872034B59
:102AB0001B6803B11847704754000020F001002044
:102AC0007FB50F4C0F4B4A68E0610D4620461A60F7
:102AD00000F082F82E680C4D2846EE6000F03CFABB
:102AE000FFF7E2FF01232B74236833B1074A0192F9
:102AF000074A0396029201A8984704B070BD00BF30
:102B0000F4010020F001002054000020A12A000858
:102B1000852A000830B5124C124D85B0104800F0DF
:102B20001EFA08B9237C0BB905B030BD01A92046B7
:102B300000F042FA01232374EB6933B1019A039246
:102B400002A898479DF808302374237C1BB1019894
:102B500000F0F8F8E2E70199204600F00AFADDE714
:102B600054000020F4010020F8B5134B1B68064602
:102B70000F460BB100209847104CF27AE068002510
:102B8000043206F108010830257201F09DF80C4B63
:102B900029461B692846984748F2E80000F040FCA7
:102BA000E1688A7807F10800033201F08DF8BDE88A
:102BB000F840FFF779BF00BFF0010020540000206B
:102BC000F4010020024B0360024B0361704700BF19
:102BD000552C0008992C0008024B0360024B03613E
:102BE000704700BFB12C0008ED2C000837B5094C28
:102BF000094D084800F0B3F908B103B030BD01A990
:102C0000204600F0D9F92B690199186900F0BDF947
:102C1000EFE700BF1C0200200000032000F004BC0E
:102C20000A4B0B4A03F120011360516003F130019C
:102C3000916003F13C01D16003F14401116103F1A2
:102C4000600164335161936100F0F6BB1C00032006
:102C50000000032038B50C4D0446284600F07CF9EE
:102C60000A4BA2685B681A60E268DA6005F1080244
:102C70005A609D6000F000FC054B22681A60054B0D
:102C800062681A60002038BDA801032000000320FC
:102C9000180200201402002008B5044B5B681B6872
:102CA00001221A7200F0F0FB002008BD0000032092
:102CB00038B50A4D0446284600F04EF9084BA26884
:102CC000DB6883E8240000F0E7FB064B22681A600B
:102CD000054B62681A60002038BD00BFC0010320A8
:102CE00000000320240200202802002008B5044B25
:102CF000DB681B6810221A7200F0D6FB002008BDAA
:102D00000000032038B50C4D0446284600F024F995
:102D10000A4800F021F90A4BA2681B699A60E26830
:102D2000DA6022681A6062685A6022695A616269D0
:102D30001D619A6138BD00BF8C0003201C02002079
:102D40000000032008B50146034800F01EF90348BF
:102D5000BDE8084000F0B4BB1C020020ED2B0008C9
:102D600010B5054C204600F0F7F8044B5B691C6079
:102D7000BDE8104000F0BABB94000320000003201F
:102D8000024B02781A7042785A7070472C02002069
:102D900010B5EFF3108472B6064B01290BBF19680A
:102DA0001A68814302430CBF19601A6084F31088CB
:102DB00010BD00BF30020020054B064AD979814280
:102DC00002D0934202D1002318467047083BF5E732
:102DD000F873FF1F0070FF1FEFF3108372B6034AF2
:102DE00042F8201083F31088704700BF3C02002097
:102DF00010B5EFF3108372B6064A146804431460EA
:102E0000054C54F83120024344F8312083F31088F4
:102E100010BD00BF6002002058020020EFF31083B5
:102E200072B604490A6822EA00020A6083F3108835
:102E3000704700BF10000020EFF3108372B6034903
:102E40000A6802430A6083F310887047100000206C
:102E5000EFF3108372B603490A6802430A6083F3F2
:102E600010887047340200202DE9F843EFF31087F3
:102E7000274C284D2668DFF8B08030402060A946F6
:102E8000D8F800302A6821681A400A4214D172B674
:102E9000D8F800202B6813402268134207D11E4B3C
:102EA0001A681E4B1B681A4201D100F0ADFA87F375
:102EB00010882660BDE8F883194802680B4013406B
:102EC0004268134204BF4FF0FF32426041680B403A
:102ED000B3FA83F3C3F11F034FF0010E0EFA03FEA2
:102EE0006FEA0E0E01EA0E01416072B6D9F80010C9
:102EF000026801EA0E0102EA0E02C9F8001002603F
:102F000087F31088074A52F823309847B8E700BF84
:102F10000C00002060020020340200203802002053
:102F2000580200203C0200201000002070B5084C20
:102F3000084D266820602B682068034204D023EAED
:102F400000032B60266070BD00F05FFAF3E700BF5E
:102F50003802002034020020006040607047EFF328
:102F6000108272B603681B1A5842584182F31088C7
:102F70007047EFF3108372B602680A604860016020
:102F80000A68516083F310887047EFF3108372B6BC
:102F900042684A60086041604A68116083F31088A3
:102FA0007047EFF3108372B690E806001160016875
:102FB0004A6083F31088704710B5EFF3108472B63F
:102FC00003680B600068FFF7ECFF84F3108810BD06
:102FD000704710B5044640680830FFF79FF910B1FC
:102FE0000123237010BD207010BD10B1012803D043
:102FF00070473F20FFF712BF3F20FFF71DBF0000C3
:1030000030B5114D95F89030062B89B017D01023AC
:10301000069305934FF4FA7304935023002402930C
:103020004FF448712823019303940094074B2246E0
:103030000846FFF79AFA20B9042385F8903009B0C2
:1030400030BD85F89040FAE7680000208402002037
:10305000064B93F89030062B06D04FF448710123AD
:1030600000220846FFF754BA704700BF68000020EE
:1030700070B5614B96B00AAA03F128061546186888
:103080005968144603C40833B3422246F7D118687E
:103090001B792371594B206008A908935848594B54
:1030A0000993FFF737FC00210220FFF771FE564C11
:1030B00056490520FFF790FE28460025FFF7F4FB50
:1030C000ADF81850FFF78DFB23685A1C00F08C8078
:1030D0004F4A11684F4A180A13701B0C9370D17035
:1030E0000B0A090C50701371517106210020FFF773
:1030F000FEFA4EF66E5309932368089308AA062138
:103100002E20FFF7F4FA444A444C10211820FFF710
:10311000EEFA434A10210820FFF7E9FA18210120AE
:10312000FFF713FBFFF767FA0DF11E03019307ABDF
:10313000009307220DF11A0300210420FFF784F900
:10314000384BBDF81C10009300220723BDF81A006D
:10315000FFF772FA06AB00250022BDF81E1000939F
:10316000BDF81A000223FFF767FA28462570FFF71B
:1031700009F90822627510220123A2752A4A637098
:10318000E5702575A261A37063191D710135102DBD
:10319000FAD1254A039200230822012104930293C5
:1031A000009201951A460846FFF710F9A3780BB173
:1031B000FFF78EF9FFF780F81C490020FFF70CFE9F
:1031C0001B490120FFF708FE0025202084F89050BD
:1031D000FFF7E2FA00F00AFC164B17492A46284688
:1031E00000F020FA16B070BD2846FFF7E5FD134A3F
:1031F000002818BF024678E7343D00089C000320F1
:10320000D32F0008EB2F00088075FF1F6D290008E1
:103210008475FF1F640200207D3D000868000020C7
:103220006D3D0008653D000807B2010051300008FF
:1032300001300008D12F0008F90000208D3D000862
:1032400070B543783E2B86B0044656D0FF2B11D084
:10325000052B1CD1394A8188D38C994217D1002380
:103260003748D38482F8903001220270438000F006
:10327000C7FB0CE0324B01261E70B0F8033040F261
:103280000742934206D040F60202934214D0012036
:1032900006B070BD40790228F9D1A1790029F6D194
:1032A000264B93F89220012AF1D193F89030062B07
:1032B000EDD0FFF79DFDEAE70020FFF76DFA21480A
:1032C000E5790570627A237A43EA022343806189B3
:1032D0008180A289C280E3890381248A44811748BE
:1032E000C08C03951025049602958DE83000FFF7F9
:1032F00097FA2020FFF750FAC9E7C378012B0CD0CA
:10330000022BC4D14379002BC1D1417B8B42BEDA61
:10331000E218927B01321344F8E7084CB0F805300C
:103320000748E384062284F890200022027043803C
:1033300000F066FBE08CFFF7B2F9A8E76800002018
:10334000800200208A020020034BDA8C82420CBFEC
:1033500093F8900000207047680000200021202092
:10336000FFF746BD0120FFF773BD0120FFF7DEBD6B
:10337000704708B5FFF7F4FCFFF77AFE0121084615
:10338000BDE80840FFF704BD10B54FF0B04288B06B
:10339000936843F4004393600024022302A88DF84D
:1033A00008308DF80940FFF7EBFC20461149124C1C
:1033B00000F0A4F8FFF734FC10490620FFF70CFDDD
:1033C00069460F4B0F4800940193FFF779FB04F512
:1033D0008673029304F50673039302A840F23C53EC
:1033E00004F5497405930494FFF78CFCFFF716FC71
:1033F00008B010BD24030020C8010320152B0008CD
:10340000713300087333000870474FF0FF30FFF747
:103410002BBD00214020FFF7EBBC0220FFF718BDB9
:103420000220FFF783BD0000024AD36843F4004343
:10343000D3607047000400584FF0B04307B51A6DD1
:1034400042F480121A651B6D03F480130193019BF3
:10345000084B1A6842F001021A601A6842F480327E
:103460001A602C20FDF7AEF82D20FDF7ABF803B065
:103470005DF804FB000C0058024A536823F0010376
:1034800053607047000C0058024B4FF480329A6032
:10349000704700BF000C0058024A536823F0020333
:1034A00053607047000C0058044B4FF400329A6090
:1034B0005A6822F400325A60704700BF000C00586E
:1034C00010B5084CE3681B0706D5074B1860636806
:1034D00023F40023636010BD80474FF40023A360F2
:1034E00010BD00BF000C00586C020020024A536857
:1034F00023F0080353607047000C005870B50C6847
:10350000404E414DCA23636253236362B36829600E
:1035100043F02003B360B36803F00703C3F104036F
:10352000D9B23A4B197032694FF4FE0393FAA3F300
:10353000B3FA83F302F4FE02DA400132344BD2B222
:103540001A703369334EC3F30E0301333380013BEA
:103550005343A3F5A073CB404FF6FE7293422E4A1D
:103560008CBF4FF6FF739BB213802C4A136843F451
:1035700000231360D2F8803043F40023C2F8803077
:10358000002837D1264B012183F898104FF0FF31E6
:10359000C3F894100621187483F8280083F84000BB
:1035A00083F8580083F8700083F888001970A368C6
:1035B00023F48063A360E368DBB263F49063E360A9
:1035C0004FF40023D3600320FDF72CF82B681A6812
:1035D000936843F4804393602B681B68FF220321A8
:1035E0005A6208460022FCF7B9FF0320BDE870408C
:1035F000FCF7E8BFE3685B05EED50320FDF704F8B0
:10360000EAE700BF00280040780200207602002090
:10361000700200207402002072020020000800588E
:103620000C0100202DE9F047EFF3108772B6DFF8A8
:10363000489000254FF0180A0AFB05945FFA85FCB4
:1036400094F810E00EF0FF06BEF1000F0BD101253B
:10365000257487F31088606162743046636081F876
:1036600000C0BDE8F0870135062DE5D187F310884D
:103670000120BDE8F08700BF0C01002030B5AFB0DD
:103680004822002108A800F02AFB1C22002101A8E2
:1036900000F025FB002150221AA800F020FB1F4A51
:1036A000136823F4C06343F400731360136803F4D6
:1036B000C0630093009B2B2308934FF4803309933E
:1036C0004FF480730B9340230C93A0230125119397
:1036D00008A8052300240D930F95FDF71DF96F230E
:1036E000294601A801930294039404940594069436
:1036F0000794FDF7CFFB43F601031A934FF40073D1
:103700002A934FF400432B9302232C931AA81023DF
:1037100020942D93FDF769FD2FB030BD00040058B3
:1037200007B5FCF7DBFEFFF7A9FF4FF0B0432948D0
:10373000DA6C42F00102DA64DB6C03F001030193FE
:10374000019B254B00247F2580E83800FF23C360C0
:10375000046144618461C461FDF71BFF1F48204B75
:10376000204D84604FF4827E80E808404FF4E0638F
:10377000C3604FF4007383611023C3610723C362E6
:103780000823436304614461046244628462046305
:10379000FDF75BFF144BAC604FF4165C85E8081036
:1037A00028460C236B61EC602C61AC61EC612C62EF
:1037B0006C62AC62FEF794FC21462846FEF726FDBB
:1037C00021462846FEF746FD2846FEF704FDFFF792
:1037D000DBFDFEE724030020002800404803002012
:1037E0000030014098020020003801402DE9F84FD8
:1037F0004378FF2B04466AD1B0F80330A3F60443A4
:103800000C2B64D8DFE813F0B60063006600630099
:10381000630063000D0063006300630063006300E6
:10382000E300714DB0F805602B7843B16888FFF76D
:103830008BFD2B78062B4AD1002848D12870E379DC
:103840006E80142B43D1002194F808E0AE88BEFBB3
:10385000F3FEE88895F800A0894688460A46671D69
:1038600023E007EB030C9CF805B004EB030C9CF879
:1038700009C04CEA0B2C4FF6406BDC4513D1A3F189
:103880001001781821440E3B40794E7AF9182344F0
:10389000497946EA0026587A40EA01200121894602
:1038A00088464FF0080A0132D2B202EB42035B00B5
:1038B00010339645DBB2D4D1B8F1000F01D085F8B2
:1038C00000A0B9F1000F00D0AE8001B1E880002067
:1038D000BDE8F88F444BB0F8052059889142F6D1E5
:1038E000C279152AF3D1227AB3F80C9093F800E04C
:1038F000B3F80880013A002122720F468C4611224B
:1039000004F1050A207A60B9BCF1000F01D083F8F8
:1039100000E00FB1A3F80C900029D8D0A3F80880DC
:10392000D5E70AEB0205A6186D79767A46EA0526F0
:10393000A2F10E050AEB050B25449BF805B06D7A44
:1039400045EA0B254FF6416B5E450DD04FF6426BB5
:103950005E4504D10127A946BC464FF00A0E153832
:1039600015322072D2B2CDE70121A8468C464FF025
:10397000090EF4E71C4BB0F8052059889142A6D1F6
:10398000C279012AA3D1227A1D78D88902F0FC02DB
:10399000002122440F4642F6021E10E094F80CC0AB
:1039A000E67A46EA0C26764508D10A2D06D1A17A98
:1039B000607A40EA012001210B250F46043494422D
:1039C000ECD107B1D881002981D01D707FE7064B6B
:1039D0005A88B0F805309A427FF479AF002104206C
:1039E000FFF706FA73E700BFFC000020024B034814
:1039F00000221A70FEF786BCFC000020ED3700089C
:103A000070474FF0B04382B01A6D42F400221A653D
:103A10001B6D03F400230193019B02B0704700006B
:103A20000268064B9A4201BF4FF0B042D2F8903084
:103A300043F40043C2F89030704700BF00280040B4
:103A400010B5044688B01422002103A800F047F9FD
:103A50002268124B9A421ED14FF0B04303A91A6E4E
:103A600042F480521A661A6E02F480520292029A4E
:103A7000DA6C42F00102DA64DB6C03F001030193BB
:103A8000019BC2230393022304934FF0904005232C
:103A90000793FCF7D5FD08B010BD00BF0030014012
:103AA00010B5044688B01422002103A800F017F9CD
:103AB0002268134B9A4221D14FF0B04303A91A6EEA
:103AC00042F480421A661A6E02F480420292029A0E
:103AD000DA6C42F00102DA64DB6C03F0010301935B
:103AE000019B4FF4C06303930223049301230593C6
:103AF0004FF0904007230793FCF7A2FD08B010BDDC
:103B0000003801407047FEE7FEE7FEE7FEE770473A
:103B100070477047FCF7F8BC174B00219960D3F849
:103B2000882042F47002C3F888204FF0B0436FF44D
:103B3000827C1A6842F001021A604FF4E0229A6017
:103B40001868A2F1A262624402401A60D3F894207D
:103B500022F00502C3F89420D3F8982022F0010245
:103B6000C3F89820054ADA601A611A6822F48022A4
:103B70001A609961704700BF00ED00E00010042258
:103B80004FF0B042244913689068C3F3031300F068
:103B90000C0010B551F823401146204A0C2839D8A2
:103BA000DFE800F038383838073838381638383811
:103BB00018001B4B13604FF0B0431A489968136804
:103BC000C1F3031150F82110B3FBF1F3136010BDE2
:103BD000154BEFE7C868CB6800F00300C3F302138E
:103BE000022803F101030ED10D49B1FBF3F34FF0AD
:103BF000B041C868C968C0F30620490F434301318A
:103C0000B3FBF1F3D6E7032801D10749EDE7B4FB95
:103C1000F3F3ECE71460CEE7F43D00081400002055
:103C20000024F400943D00080048E8010D48854652
:103C30000D480E490E4A002302E0D458C450043304
:103C4000C4188C42F9D30B4A0B4C002301E01360DB
:103C50000432A242FBD3FFF75FFF00F011F8FFF739
:103C60005FFDFEE700000320040000201800002094
:103C7000443E0008A8010020AC030020FEE700003D
:103C800070B50D4E0D4CA41BA4100025A54209D102
:103C90000B4E0C4C00F02CF8A41BA4100025A542E0
:103CA00005D170BD56F8253098470135EEE756F836
:103CB000253098470135F2E73C3E00083C3E0008BD
:103CC0003C3E0008403E000810B5431E0A449142A5
:103CD00000D110BD11F8014B03F8014FF7E7024482
:103CE0000346934200D1704703F8011BF9E7000037
:103CF000F8B500BFF8BC08BC9E467047F8B500BFD9
:083D0000F8BC08BC9E467047A8
:103D080012000000240000003600000040000000FF
:103D1800060000000C000000100000000000000079
:103D28000100000002000000030000000000000085
:103D3800000000000000000000000000000000007B
:103D480044000800400508013A799C00F40100018C
:103D5800FFFFFFFF48010100000104020853544D12
:103D68003332574200FEDCBA0987654321FEDCBACC
:103D78000987654321123456789ABCDEF01234560E
:103D8800789ABCDEF000000000000000010000008E
:103D98000300000005000000010000000100000011
:103DA800060000000A0000002000000002000000D9
:103DB800040000000800000010000000400000009F
:103DC8008000000000010000000200000000000068
:103DD80000000000000000000000000001000000DA
:103DE800020000000300000004000000A08601009B
:103DF800400D0300801A060000350C0040420F00F9
:103E080080841E0000093D0000127A000024F4009E
:103E180000366E010048E801006CDC02000000007A
:0C3E28000000000000000000000000008E
:083E34007CC3FF7F01000000C8
:043E3C006501000814
:043E40004101000834
:103E44000100000010000000FFFFFFFFFFFFFFFF65
:043E540000093D0024
:103E5800000000000000000000000000000000005A
:103E6800000000000000000000000000000000004A
:103E7800000000000000000000000000000000003A
:0A3E88000000000000000000000030
:103E92000000000000000000000000000000000020
:013EA200001F
:103EA300000000000000000000000000000000000F
:103EB30000000000000000000000000000000000FF
:103EC30000000000000000000000000000000000EF
:103ED30000000000000000000000000000000000DF
:103EE30000000000000000000000000000000000CF
:103EF30000000000000000000000000000000000BF
:103F030000000000000000000000000000000000AE
:103F1300000000000000000000000000000000009E
:103F2300000000000000000000000000000000008E
:103F3300000000000000000000000000000000007E
:043F4300000000007A
:103F4700000000000000000000000000000000006A
:103F5700000000000000000000000000000000005A
:103F6700000000000000000000000000000000004A
:103F7700000000000000000000000000000000003A
:020000042003D7
:0400000508003C2D86
:00000001FF
